:100000000C94C7000C94EF000C94EF000C94EF00DC
:100010000C94EF000C94EF000C94EF000C94EF00A4
:100020000C94EF000C94EF000C945A0F0C94C90F31
:100030000C94EF000C94EF000C94EF000C94EF0084
:100040000C94EF000C94EF000C94EF000C94EF0074
:100050000C94EF000C94EF000C94EF000C94FB1147
:100060000C94EF000C94EF000C94EF000C94EF0054
:100070000C94EF000C94EF000C94EF000C94EF0044
:100080000C94EF000C94EF000C94EF000C94EF0034
:100090000C9445120C94EF000C94EF000C94EF00BC
:1000A0000C94EF000C94EF000C94EF0000000000A3
:1000B000250028002B002E00310004040404040352
:1000C00004050202020204030202020206060606F8
:1000D000060604040202020404040802011040801F
:1000E000401020408040800802040180402010021F
:1000F00001108010204040200000000200090F0085
:1001000000030401000C00000000000000000000DB
:1001100000000000000000080B00020202000009BD
:100120000400000102020000052400100105240162
:1001300001010424020605240600010705810310BD
:10014000004009040100020A000000070502024005
:1001500000000705830240000004030904120100A7
:1001600002EF0201404123378000010102030141F7
:10017000726475696E6F204C4C43004172647569FE
:100180006E6F204D6963726F000064138B1A112427
:100190001FBECFEFDAE0DEBFCDBF11E0A0E0B1E0DF
:1001A000E0E7F0E402C005900D92AC3DB107D9F74D
:1001B00024E0ACEDB1E001C01D92A532B207E1F739
:1001C00010E0C6ECD0E004C02197FE010E94331E6F
:1001D000C53CD107C9F70E9423160C942B200C9420
:1001E0000000CF92DF92EF92FF920F931F93CF9375
:1001F000DF93D901E8016A01F9014217530714F0AE
:100200006901FA01882309F440C0CB016C157D0512
:100210000CF4C6019F018E179F070CF49C01A417D4
:10022000B50734F4CF01821B930B9C012C0D3D1DAF
:100230000D2C000CEE08FF08032E000C440B550B90
:100240002C193D094E095F09AEEFBFEF0E94851CD6
:100250009F01FF0F440B550B2C193D094E095F09F7
:100260000E94661CDA01C9018F5F9F47A109B1098D
:100270008883998382E090E0DF91CF911F910F9165
:10028000FF90EF90DF90CF90089590E080E0F4CF62
:10029000FC0180917E02882311F13FB7F89482E03F
:1002A0008093E9002091F200822F90E01816190641
:1002B00014F481E090E0882339F0289A44E64093D2
:1002C0007D024091F1004083222339F02091F20019
:1002D000211103C02BE62093E8003FBF08958FEF64
:1002E0009FEF089508950895FC01248135816217D8
:1002F000730748F480819181009729F0860F971F3A
:10030000FC018081089580E0089540916C02509135
:100310006D0220916A0230916B0242175307B4F4C8
:100320009091E8009570E1F39091E80092FD19C07A
:100330008093F10080916C0290916D0201968F7311
:100340009927892B19F48EEF8093E80080916C0235
:1003500090916D02019690936D0280936C0281E002
:10036000089580E00895EF92FF920F931F93CF932B
:10037000DF93F82E192FE62E042F81E0860F880FC9
:100380000E94850183E00E948501CF2DD12FEC0EC4
:10039000FD2EF11CCE15DF05B9F007FF13C0FE01DD
:1003A00084910E948501182F80E00E94850181239D
:1003B00021968111EFCFDF91CF911F910F91FF9087
:1003C000EF9008958881EDCF81E0F5CFDF92EF9235
:1003D000FF920F931F93CF93DF93D82E8A01EB01E7
:1003E0007B01E40EF51ECE15DF0559F0D7FE12C0D5
:1003F000FE0184910E94850121968111F4CF0FEFB7
:100400001FEFC801DF91CF911F910F91FF90EF90E7
:10041000DF9008958881EECF2FB7F894877080938E
:10042000E9009091E800892F807295FF04C09091B7
:10043000F20080E4891B2FBF0895615030F02091B5
:10044000F100FC0120830196F8CF289A84E680937E
:100450007D0208958091620281110DC082E0809337
:100460005E0284E080935F0210926102109260024B
:1004700081E0809362028EE592E008950F931F93CE
:10048000CF93DF931F92CDB7DEB782E0898342E43A
:1004900050E067E171E080E80E94E6010E942A02D4
:1004A000DC0112960D911C910115110589F0D801FE
:1004B000ED91FC910280F381E02DBE016F5F7F4FD3
:1004C000C801099597FD04C0F80100851185ECCF9E
:1004D00089810F90DF91CF911F910F910895CF9354
:1004E000DF931F92CDB7DEB76983DC01ED91FC91FC
:1004F0000280F381E02D41E050E0BE016F5F7F4F4D
:1005000009950F90DF91CF91089583E08093E900E2
:100510008091F200882319F08AE38093E80008951F
:1005200083E00E940C0290E00895CF93DF931F9226
:10053000CDB7DEB7FC018485958597FD08C02FEF08
:100540003FEF358724870F90DF91CF910895CE013B
:1005500001960E944801019719F4898190E0F3CF38
:100560008FEF9FEFF0CF2FB7F89480917F0290919B
:100570008002A0918102B09182022FBF8093DB02A2
:100580009093DC02A093DD02B093DE0283ED92E053
:100590000E94950297FF26C02FB7F89480917F02A2
:1005A00090918002A0918102B09182022FBF409170
:1005B000DB025091DC026091DD027091DE02841B4F
:1005C000950BA60BB70B4091D7025091D8026091C2
:1005D000D9027091DA0284179507A607B707B0F21F
:1005E0008FEF9FEF08950F931F93CF93DF931F9289
:1005F000CDB7DEB78C01FC018485958597FF0BC0D4
:10060000CE0101960E944801019771F4898190E022
:10061000F80195878487F801848595850F90DF918F
:10062000CF911F910F9108958FEF9FEFF1CFFC01B4
:100630008485958597FD0BC09FB7F89482E08093E1
:10064000E9008091F2009FBF90E0019608959FB766
:10065000F89482E08093E9008091F2009FBF90E0DF
:100660000895282F30E0F901E850FF4F9491F901E7
:10067000E752FF4F849126543F4FF90124912223E2
:1006800009F430C09923E9F091509F30D0F4E92F5C
:10069000F0E0E35BFC4F0C94331E7B037F035C03B1
:1006A00073037703610361036103820388038C038F
:1006B0009003960361039A03909180009F77909333
:1006C0008000E22FF0E0EE0FFF1FE455FF4FA591F1
:1006D000B4919FB7F894EC91611132C080958E234C
:1006E0008C939FBF0895909180009F7DE8CF90915B
:1006F0008000977FE4CF94B59F7794BDE2CF94B507
:100700009F7DFBCF909190009F7790939000D9CFE1
:10071000909190009F7DF9CF90919000977FF5CFB9
:100720009091C0009F779093C000CBCF9091C00074
:100730009F7DF9CF9091C200977F9093C200C1CF67
:100740008E2BCECF3FB7F89480915A0290915B02E6
:10075000A0915C02B0915D0226B5A89B05C02F3F19
:1007600019F00196A11DB11D3FBFBA2FA92F982FD7
:100770008827BC01CD01620F711D811D911D42E0D2
:10078000660F771F881F991F4A95D1F708958F929A
:100790009F92AF92BF92CF92DF92EF92FF924B0166
:1007A0005C010E94A2036B017C0189288A288B28A6
:1007B00059F00E94A2036C197D098E099F09683EB9
:1007C000734081059105A8F3FF90EF90DF90CF90E3
:1007D000BF90AF909F908F9008957F928F929F923D
:1007E000AF92BF92CF92DF92EF92FF920F931F933F
:1007F000CF93DF93C82E8B017A0180917E02811105
:1008000010C08FEF9FEFDF91CF911F910F91FF905D
:10081000EF90DF90CF90BF90AF909F908F907F90A0
:1008200008958091700280FF05C08091E000826091
:100830008093E000CE2DDF2DD12C8AEFB82E8C2DA9
:100840008770982E8C2D8072882E8C2D8074782E37
:100850009AE3A92E209719F4DD2009F452C08C2DBB
:100860000E940C0281110AC0BA94BB2051F261E0CF
:1008700070E080E090E00E94C703ECCF8C171D066B
:1008800011F00CF08C2F9FB7F8949092E900209112
:10089000E80025FD02C09FBFDDCF282F30E0C21B3E
:1008A000D30B882029F08150A0F01092F100FBCFEB
:1008B000F801C7FC0AC0815050F041914093F1000B
:1008C000FACF44914093F10031968150D0F7020F56
:1008D000131FDD2021F0A092E800D12CDCCF809105
:1008E000E80085FD07C0A092E800DD24D39420979E
:1008F00091F2F3CF209779F6772069F2A092E80081
:10090000CACF5D9A84E680936F02C7017CCFCF93F4
:10091000DF93EC0180911201882331F083E00E9483
:10092000ED031816190634F081E090E09B838A836A
:1009300080E090E0DF91CF91089520911602260F7C
:100940003327331F21323105ECF42091A902FC0139
:1009500090E080E0243069F082E00895A0911602D2
:100960002191AC014A505E4FA40FB52FB11D2C93BD
:100970000196861798F380911602680F609316020D
:1009800080E0089581E008951092A90281E08093AB
:10099000A8021092830261E082E00E94310361E0CC
:1009A00083E00E943103E9EBF0E080818E7F808359
:1009B00080818D7F808388E48093B80085E4809374
:1009C000BC000895CF93DF9391E09093F5018823C5
:1009D000B9F0C091B800D091BA008091BC008A7B78
:1009E0008093BC0060E082E00E94310360E083E01D
:1009F0000E9431030E94C404D093BA00C093B8008F
:100A0000DF91CF9108958F929F92AF92BF92CF9234
:100A1000DF92EF92FF920F931F93CF93DF93D091CA
:100A2000D202D13208F0D7C0182FC091D1020E9453
:100A3000A2036B017C018091A90281116BC082E04D
:100A40008093A9021093A8028FEF8093A7021092BF
:100A5000A602D093A502A1EBB2E0E5E8F2E080E0C7
:100A6000D81391C01092840280918402CC0FC82BBD
:100A7000C093840280918302813009F088C0109273
:100A800083020E94A2036B017C0180918402809307
:100A9000BB008091AB029091AC02A091AD02B091ED
:100AA000AE02892B8A2B8B2BA1F00E94A20300910E
:100AB000AB021091AC022091AD023091AE026C19E4
:100AC0007D098E099F09061717072807390708F4BB
:100AD00042C08091BC0083FDD8CF85EC8093BC00E0
:100AE0000E94A2036B017C018091A902823009F46B
:100AF00050C08091A7028F3F09F46FC08091A70278
:100B0000803209F46CC08091A702803309F469C077
:100B100084E026C08091AB029091AC02A091AD021E
:100B2000B091AE02892B8A2B8B2B09F484CF0E94C3
:100B3000A2038090AB029090AC02A090AD02B09066
:100B4000AE026C197D098E099F0986169706A806C4
:100B5000B90608F070CF8091AA020E94E20485E0F5
:100B60001092B0021092D2021092AF02DF91CF9198
:100B70001F910F91FF90EF90DF90CF90BF90AF90BB
:100B80009F908F9008959D9191938F5F69CF85EE8F
:100B9000A5CF8091AB029091AC02A091AD02B09133
:100BA000AE02892B8A2B8B2B09F49ECF0E94A203C5
:100BB0000091AB021091AC022091AD023091AE02D7
:100BC0006C197D098E099F09061717072807390731
:100BD00008F08ACFC0CF81E0C3CF80E0C1CF82E0F0
:100BE000BFCF83E0BDCF0895E09177028091760278
:100BF000E81730F4F0E0E75CFD4F808190E0089565
:100C00008FEF9FEF089590917702809176022FEFFA
:100C10003FEF981748F4E92FF0E0E75CFD4F2081A3
:100C200030E09F5F90937702C9010895809176022A
:100C300090917702891B990B0895CF92DF92EF92E2
:100C4000FF920F931F93CF93DF937C01CB018A0117
:100C50002091AF02222389F0EB016B01C40ED51E57
:100C6000CC15DD0569F06991D701ED91FC910190FA
:100C7000F081E02DC7010995F3CF642F0E949D04F8
:100C8000C801DF91CF911F910F91FF90EF90DF90FE
:100C9000CF900895CF93DF931F92CDB7DEB76983CE
:100CA0002091AF022223F9F02091D202203258F095
:100CB00021E030E0FC013383228390E080E00F905C
:100CC000DF91CF9108958091B002E82FF0E0EF54CA
:100CD000FD4F998190838F5F8093B0028093D20201
:100CE00081E090E0ECCF61E0CE0101960E949D048E
:100CF000F7CF90E080E00895DC01FB0112962C9183
:100D00001297848195812817190641F49181808179
:100D1000813A31F49D7F81E0913009F080E00895BF
:100D20008132E1F79B3029F482811F968C9381E018
:100D300008959A3099F7828150968C93F8CFDC0110
:100D4000FB0188E4808389E4818384E482831D96A7
:100D50009C911D979F709F5B93831D968D919C9195
:100D600024E0969587952A95E1F78F708F5B8483B1
:100D700085E00895EF92FF920F931F93CF93DF9337
:100D8000FB012081213889F52381223271F5DC01B4
:100D900012964C91248135814217130631F58C014E
:100DA000FC01C385D485F12CE12C209791F04C8176
:100DB0005D816A817B818E81811180E80E94E601DC
:100DC0008F3F980759F0E80EF91E0990D881C02D81
:100DD000ECCF81E0D8011F968C93C701DF91CF91B2
:100DE0001F910F91FF90EF90089590E080E0F6CF73
:100DF000CF93DF93CDB7DEB769970FB6F894DEBF18
:100E00000FBECDBFFC01DB018C918F5F8C939E01E7
:100E10002D5F3F4F8DE0D9011D928A95E9F729E0BA
:100E2000298384E08A8391E09D8383E08E832A87EF
:100E300021E22B879C879D879F8722E2288B27E0D2
:100E40002B8B25E02C8B8E8B20E430E0388F2F8B82
:100E5000998F82818B8395858685998B8A8B8381F7
:100E600080688D8B49E150E0BE016F5F7F4F80E06D
:100E70000E94E60169960FB6F894DEBF0FBECDBFA3
:100E8000DF91CF910895CF93DF938091ED01811190
:100E900067C081E08093E0018093E10126EE31E0BC
:100EA0003093E3012093E2011092E5011092E401F6
:100EB00025E331E03093DD012093DC011092E8015D
:100EC0001092E7011092EA011092E9018093EB0180
:100ED0008093EC0181EC8093E6010E942A02FC01E0
:100EE00081819091E001482F490F5527551F4830C7
:100EF00051059CF5A281B381109709F52CED31E0E5
:100F00003383228320812093DE018093DF0180914F
:100F1000E101820F80832091E201A22FB091E301D1
:100F20008A2F821B8917C8F481813D91C82FD0E098
:100F3000C050DF4F38838F5F8183F2CFD90118967D
:100F40002D913C91199721153105C1F72CED31E018
:100F500019963C932E931897D5CF81E08093ED019D
:100F60008CED91E0DF91CF9108952F923F924F92B7
:100F70005F926F927F928F929F92AF92BF92CF9229
:100F8000DF92EF92FF920F931F93CF93DF93CDB732
:100F9000DEB7A0970FB6F894DEBF0FBECDBF8C01B1
:100FA0007B01DC0118968D919C911997892B09F48E
:100FB000C9C097968C919797813079F08230F1F182
:100FC000D80197968C919797813009F48BC0823025
:100FD00009F4B3C0F12CE12CB5C0F80184A595A5A6
:100FE00020A531A58217930718F4019695A784A729
:100FF000D8019A968D919C919B97880F991F9E96E8
:10100000ED91FC919F97E80FF91FF182E0829A968B
:101010008D919C919B9798962D913C9199972150F9
:1010200031098217930729F49B961C921E929A9776
:10103000C7CF0196F80193A782A7C2CF9E96CD9005
:10104000DC909F979C968D919C919D97892B69F43C
:1010500081E090E09D969C938E939C97F60171831E
:101060006083F601F382E282ABCF98966D917C911A
:1010700090E080E00E94311B20E030E048EC52E438
:101080000E94651D4B015C01F6016081718190E059
:1010900080E00E94311B2B013C01A501940160E01E
:1010A00070E080E89FE30E94F81C9B01AC01C30143
:1010B000B2010E94921B2B013C01B70190E080E03D
:1010C0000E94311BA50194010E94921B9B01AC015F
:1010D000C301B2010E94F91C0E94D71DD6016D9375
:1010E0007C93BFCFF801C4A4D5A4F0E0E0E030E0E9
:1010F00020E0F12CE12CEC15FD0521F1D8019E96A4
:101100004D915C91CF01880F991FDA01A80FB91F8B
:101110008D919C91B6010E940B1E280F391FE60E7F
:10112000F71EC216D30638F4C901B6010E940B1E81
:101130009C01E60EF71E3196DECF9E96ED91FC9156
:10114000E080F180F801C680D78082819381C81A3F
:10115000D90A6481758180819181680F791FCE14CD
:10116000DF0408F47EC0E616F70608F47B0190E081
:1011700080E00E94311B4B015C01B70190E080E0F0
:101180000E94311BA50194010E94F81C20E030E070
:1011900048EC52E40E94921B2B013C01B60190E006
:1011A00080E00E94311BA50194010E94F81C9B0164
:1011B000AC01C301B2010E94651D20E030E0A9012D
:1011C0000E94F91C4B015C0188E1E9E1F1E0DE01DC
:1011D000119601900D928A95E1F720E030E0A90187
:1011E000C501B4010E942C1B1816ECF1D8011A9607
:1011F000CD90DD90ED90FC901D9720E03EEF4FEFFD
:1012000056E4C701B6010E94921B20E030E048EC92
:1012100052E40E94651D20E030E0A9010E94F91C03
:101220000E94D71DD80194967C936E939397CB011F
:10123000A0960FB6F894DEBF0FBECDBFDF91CF9161
:101240001F910F91FF90EF90DF90CF90BF90AF90E4
:101250009F908F907F906F905F904F903F902F90D6
:101260000895760184CF20E030E048EC52E4C501D7
:10127000B4010E94061E87FF85C0DD24D3946D2C27
:10128000712C7301EE0CFF1CEE0CFF1CE1E0F0E092
:10129000EC0FFD1FEE0DFF1D80819181A281B381B6
:1012A000898F9A8FAB8FBC8F9C01AD01C501B401B2
:1012B0000E94061E181614F4D394E1CF18019AE088
:1012C000290E311CF101EE0DFF1DC080D180E2809E
:1012D000F380298D3A8D4B8D5C8DC501B4010E9440
:1012E0002C1B882309F489CFA1E06A1AA0EC7A0AA2
:1012F000C301880F991F880F991FE1E0F0E0EC0F00
:10130000FD1FE80FF91F4080518062807380280E16
:10131000391ED1018D919D910D90BC91A02D8D8F85
:101320009E8FAF8FB8A3A3019201C501B4010E94A3
:10133000F81C4B015C012D8D3E8D4F8D58A1C701CE
:10134000B6010E94F81C9B01AC01C501B4010E94CA
:10135000921B6B017C01A3019201698D7A8D8B8DAB
:101360009C8D0E94F81C9B01AC01C701B6010E9434
:10137000651D2D8D3E8D4F8D58A10E94F91C6B016E
:101380007C013BCFF801C68CD78CE0A0F1A035CF13
:10139000CF92DF92EF92FF920F931F93CF93C82FBC
:1013A00081E08093AF02C093D1021092B0021092FC
:1013B000D20283E293E00E944A0681E00E94030584
:1013C0000E94A2036B017C018091A902811165C07A
:1013D00081E08093A9028093A8029FEF9093A702D7
:1013E0001092A6028093A5028093840280918402C9
:1013F000CC0FC82BC093840280918302813009F006
:101400008CC0109283020E94A2036B017C01809128
:1014100084028093BB008091AB029091AC02A091BA
:10142000AD02B091AE02892B8A2B8B2BA1F00E94CA
:10143000A2030091AB021091AC022091AD02309159
:10144000AE026C197D098E099F0906171707280738
:10145000390708F443C08091BC0083FDD8CF85ECE8
:101460008093BC000E94A2036B017C018091A902C1
:10147000813009F454C08091A602823008F071C016
:101480008091A602A5E8B2E0E9E3F2E090E09817C7
:1014900051F12D9121939F5FFACF8091AB029091F2
:1014A000AC02A091AD02B091AE02892B8A2B8B2B9E
:1014B00009F48ACF0E94A2030091AB021091AC0202
:1014C0002091AD023091AE026C197D098E099F0901
:1014D000061717072807390708F076CF8091AA0268
:1014E0000E94E20480E0109277028093760283E209
:1014F00093E00E940306C82F83E293E00E94030654
:1015000020E03C2FA901482BCA01CF911F910F91D8
:10151000FF90EF90DF90CF90089585EEA1CF80915E
:10152000AB029091AC02A091AD02B091AE02892BBA
:101530008A2B8B2B09F49ACF0E94A2030091AB0255
:101540001091AC022091AD023091AE026C197D0970
:101550008E099F09061717072807390708F086CF55
:10156000BDCF82E08FCF0F931F93CF93DF938C017A
:10157000E62FF0E0EE0FFF1FE35CFE4FC081D1814C
:10158000C360D168F80182819381C82BD92B8481F3
:101590009581C82BD92B808191E09093AF028093E5
:1015A000D1021092B0021092D20261E083E293E085
:1015B0000E944A066D2F83E293E00E944A066C2F38
:1015C00083E293E00E944A0681E00E94030560E006
:1015D00070E0CB010E94C70383E290E00197F1F72E
:1015E00060E070E0CB010E94C70361E0F8018081F8
:1015F0000E94C80997FFF4CF60E0F80180810E9443
:10160000C809F8012181022E02C0969587950A9497
:10161000E2F7222329F08115F8E09F0708F0906F88
:10162000DF91CF911F910F910895CF93DF93FC012C
:10163000208531852115310581F0EC0182E087A3F9
:1016400031A720A784E090E00E94391E9FA78EA7B3
:10165000FC011182108213821282DF91CF910895D2
:101660008F929F92AF92BF92CF92DF92EF92FF92B2
:101670000F931F93CF93DF93CDB7DEB7ADB6BEB652
:10168000809120042DB73EB7281B31090FB6F8947E
:101690003EBF0FBE2DBF8DB79EB701966C01E09087
:1016A000EF03F12C8091EB039091EC03D601FC0148
:1016B0009F01281B390B2E153F051CF421912D93FA
:1016C000F7CF8091F003882359F18091E70390913F
:1016D000E80328E097FD09C068E671E00E941F1E3C
:1016E0006DE270E00E941F1E262F8091E903909109
:1016F000EA0368E097FD08C068E671E00E941F1EDB
:101700006DE270E00E941F1EF601EE0DFF1D90E1DC
:10171000699FB0011124262B2083F70131967F01A8
:1017200086010E0D1F1D2091F5033091F6034091A7
:10173000F3035091F4036091D1037091D20380912F
:10174000F10381700E94F100E80EF91E86010E0D72
:101750001F1D2091F9033091FA034091F703509136
:10176000F8036091D3037091D4038091F1038695BF
:1017700081700E94F100E80EF91E86010E0D1F1DFA
:101780002091FD033091FE034091FB035091FC0337
:101790006091D5037091D6038091F10382FB882775
:1017A00080F90E94F100E80EF91E86010E0D1F1D42
:1017B00020910104309102044091FF0350910004F4
:1017C0006091D7037091D8038091F10383FB882740
:1017D00080F90E94F100E80EF91E86010E0D1F1D12
:1017E00020910504309106044091030450910404B3
:1017F0006091D9037091DA038091F1038295817031
:101800000E94F100E80EF91E86010E0D1F1D2091A9
:10181000090430910A044091070450910804609132
:10182000DB037091DC038091F10385FB882780F94D
:101830000E94F100E80EF91E86010E0D1F1D209179
:101840000D0430910E0440910B0450910C046091F2
:10185000DF037091E0038091F20381700E94F10038
:10186000E80EF91E86010E0D1F1D20911104309106
:10187000120440910F04509110046091DD037091A7
:10188000DE038091F203869581700E94F100E80EDC
:10189000F91E86010E0D1F1D2091150430911604AE
:1018A00040911304509114046091E1037091E2039C
:1018B0008091F20382FB882780F90E94F100E80EF4
:1018C000F91E86010E0D1F1D2091190430911A0476
:1018D00040911704509118046091E3037091E40360
:1018E0008091F20383FB882780F90E94F1008E0D1E
:1018F0009F1D8601080F191F20911D0430911E04A1
:1019000040911B0450911C046091E5037091E60323
:101910008091F203829581700E94F1000E9443073A
:101920004C014091200480911F0450E07A01FFEFA8
:10193000EF1AFF0A2DB73EB72E193F090FB6F894DC
:101940003EBF0FBE2DBF0DB71EB70F5F1F4FEDB7C8
:10195000FEB78183B601C80101960E941B20F401E5
:101960008381A701B80180640E94ED030FB6F8944B
:10197000BEBE0FBEADBEDF91CF911F910F91FF9004
:10198000EF90DF90CF90BF90AF909F908F90089591
:10199000CF92DF92EF92FF920F931F93CF93DF933B
:1019A000EC018AE090E099A788A71BA61AA61DA6BD
:1019B0001CA681E090E099AB88AB6AA382E2689FA5
:1019C000800111246E01E2E2CE0ED11C7E010C1BBF
:1019D0001D0BC8018E0D9F1D0E94501CF7018193A5
:1019E0007F01EC15FD05A9F7CE01DF91CF911F9185
:1019F0000F91FF90EF90DF90CF900C94150B42E089
:101A000050E069E671E083ED92E00C948704CF9397
:101A1000DF93FC01448155816081718183ED92E007
:101A20000E948704EC010E94FF0C8C0F9D1FDF9128
:101A3000CF910895CF93DF93FC0101900020E9F747
:101A40003197AF01481B590BBC0183ED92E00E9416
:101A50008704EC010E94FF0C8C0F9D1FDF91CF913A
:101A600008950F931F93CF93DF93EC0188819981A1
:101A7000009759F02A813B812617370730F081E023
:101A8000DF91CF911F910F9108958B016F5F7F4F71
:101A90000E945E1F009759F0998388831B830A83F5
:101AA0002C813D81232B59F7FC011082E8CF80E087
:101AB000E7CFEF92FF920F931F93CF93DF936115C0
:101AC000710541F480E0DF91CF911F910F91FF905C
:101AD000EF90089541155105B1F07B01EC010C81A7
:101AE0001D81040F151FB8010E94310D882351F389
:101AF000288139818C819D81B701820F931F0E94BB
:101B000024201D830C8381E0DECFFB0144815581BD
:101B1000608171810C94590DCF93DF93EC01888122
:101B20009981009711F00E94D51E198218821D829A
:101B30001C821B821A82DF91CF910895EF92FF924F
:101B40000F931F93CF93DF938C017B01EB010990DF
:101B50000020E9F72197C61BD70BBE010E94310D6B
:101B6000811109C0C801DF91CF911F910F91FF90A2
:101B7000EF900C948C0DF801D583C483B70180815C
:101B80009181DF91CF911F910F91FF90EF900C9475
:101B900024200F931F93CF93DF93CDB7DEB76197C8
:101BA0000FB6F894DEBF0FBECDBF8C01CB01F8019C
:101BB0001182108213821282158214824AE0BE01C1
:101BC0006F5F7F4F0E94021BBE016F5F7F4FC80196
:101BD0000E949E0D61960FB6F894DEBF0FBECDBF7A
:101BE000DF91CF911F910F910895CF93DF9300D094
:101BF000CDB7DEB7FC0111821082138212821582EA
:101C0000148269831A82BE016F5F7F4F0E949E0D0E
:101C10000F900F90DF91CF910895CF93DF93EC0158
:101C2000FB0101900020E9F73197AF01461B570BEC
:101C30000E94590D811103C0CE010E948C0DCE016E
:101C4000DF91CF910895CF93DF93EC01FB014481A5
:101C50005581608171810E94590D811103C0CE01AF
:101C60000E948C0DCE01DF91CF910895EF92FF92EB
:101C70000F931F93CF93DF93EC017B01198218829E
:101C80001B821A821D821C82FB0101900020E9F751
:101C900031978F01061B170BB8010E94310D81117E
:101CA00009C0CE01DF91CF911F910F91FF90EF906E
:101CB0000C948C0D1D830C83B70188819981DF9171
:101CC000CF911F910F91FF90EF900C942420FC0175
:101CD00080819181009711F00C94D51E0895EF92A8
:101CE000FF920F931F93CF93DF93CDB7DEB72C975F
:101CF0000FB6F894DEBF0FBECDBF8C017B016BE643
:101D000071E00E94360EF70160817181CE0101966B
:101D10000E94C90DBE016F5F7F4FC8010E94850DF3
:101D2000CE0101960E94670EF70162817381CE0198
:101D300007960E94C90D6DE971E0CE0101960E94DF
:101D4000360EBE01695F7F4FCE0101960E94230EC1
:101D5000BC01C8010E94850DCE0101960E94670E4C
:101D6000CE0107960E94670EF70164817581CE014E
:101D700007960E94C90D6DE971E0CE0101960E949F
:101D8000360EBE01695F7F4FCE0101960E94230E81
:101D9000BC01C8010E94850DCE0101960E94670E0C
:101DA000CE0107960E94670EF70166817781CE010A
:101DB00007960E94C90D6DE971E0CE0101960E945F
:101DC000360EBE01695F7F4FCE0101960E94230E41
:101DD000BC01C8010E94850DCE0101960E94670ECC
:101DE000CE0107960E94670EF70160857185CE01CE
:101DF00007960E94C90D6DE971E0CE0101960E941F
:101E0000360EBE01695F7F4FCE0101960E94230E00
:101E1000BC01C8010E94850DCE0101960E94670E8B
:101E2000CE0107960E94670EC8012C960FB6F89453
:101E3000DEBF0FBECDBFDF91CF911F910F91FF90FD
:101E4000EF90089585ED8093BC008091AB02909156
:101E5000AC02A091AD02B091AE020796A11DB11DDA
:101E600023E0B695A795979587952A95D1F7209168
:101E7000BC0024FD03C01092A90208954091AB025A
:101E80005091AC026091AD027091AE02452B462B91
:101E9000472B69F30097A105B10541F025E32A9589
:101EA000F1F700000197A109B109E1CF8091AA02E1
:101EB0000C94E2041F920F920FB60F9211248F938D
:101EC0009F938091E1009091E100937F9093E100D6
:101ED00083FF0FC01092E90091E09093EB00109205
:101EE000EC0092E39093ED0010927E0298E09093C4
:101EF000F00082FF22C093E09093E9009091F200FD
:101F0000992319F09AE39093E80090916F02992336
:101F100041F090916F02915090936F02911101C026
:101F20005D9890917D02992341F090917D029150AE
:101F300090937D02911101C0289884FF18C0809170
:101F4000E2008E7E81608093E2008091E1008F7ECE
:101F50008093E100809170028E7E80618093700298
:101F60009F918F910F900FBE0F901F90189580FF3B
:101F7000F7CF8091E2008E7E80618093E2008091B5
:101F8000E1008E7E8093E100809170028E7E816000
:101F9000E5CF1F920F920FB60F921124CF92DF92CE
:101FA000EF92FF920F931F932F933F934F935F9363
:101FB0006F937F938F939F93AF93BF93EF93FF9311
:101FC000CF93DF93CDB7DEB76C97DEBFCDBF109256
:101FD000E9008091E80083FF25C068E0CE014596C6
:101FE0000E941D0282EF8093E8008D8987FF39C02F
:101FF0009091E80090FFFCCF982F907609F034C1C3
:102000009E894F89588D2F89F88C911131C0803865
:1020100061F5809171028093F1001092F1008EEFD2
:102020008093E8006C960FB6F894DEBF0FBECDBF6C
:10203000DF91CF91FF91EF91BF91AF919F918F91E0
:102040007F916F915F914F913F912F911F910F91D0
:10205000FF90EF90DF90CF900F900FBE0F901F90EA
:1020600018959EEF9093E800C7CF1092F100D5CF5E
:10207000913059F48111D3CF4130510581F68091CF
:1020800071028D7F80937102CACF933049F4811120
:10209000C6CF4130510519F6809171028260F2CFAE
:1020A000953041F48091E80080FFFCCF20682093B8
:1020B000E300B5CF963009F0A9C00B8D1C8D22E04E
:1020C0001092E90010926D0210926C02F2122EC072
:1020D00010926B0210926A020E943E021F8299E0E7
:1020E0009983FA8291E09E8390EA98879AEF998784
:1020F00020916C0230916D02275F3F4F3C832B8310
:102100008D831092E90010926D0210926C02109370
:102110006B0200936A0249E050E0BE016F5F7F4F9F
:1021200080E00E94E6010E943E0279CF10936B028C
:1021300000936A020E942A02DC0112960D911C9102
:102140000115110509F451C1D801ED91FC910480EC
:10215000F581E02DBE016B5E7F4FC80109950097A8
:1021600009F03EC1F80100851185EACFF3E0FF12C6
:102170000EC08F89882309F440C0823061F440E8A2
:102180006DE08BE791E00E94B301811148CF81E2BD
:102190008093EB0047CF813029F440E86BE08FE675
:1021A00091E0F1CF833099F70E942A02DC01129668
:1021B000ED90FC908E010F5F1F4F6801E114F10458
:1021C00079F0D701ED91FC910680F781E02DB801FF
:1021D000C7010995080F111DF701E084F184EECFC6
:1021E000D8011C92F60101900020E9F73197BF0158
:1021F0006C197D0940E0C601C6CF69E571E0FB01BD
:10220000449150E080E80E94E60109CF973009F43C
:10221000BECF983021F481E08093F10000CF993057
:1022200009F0FDCE837009F0B2CFE1E0F1E081E08A
:1022300031E096E32191222371F08093E9003093FD
:10224000EB00DF0111972C912093EC009093ED00AF
:102250008F5F873079F78EE78093EA001092EA006B
:102260008F8980937E02DBCE8B8D9C8D1092E9004E
:1022700010926D0210926C0290936B0280936A022E
:10228000898D811192C08E899D89913A49F481325C
:1022900009F07DCF47E050E06BE071E080E0B3CF24
:1022A000913209F074CF833269F48F89988DB0E050
:1022B000A0E08093070190930801A0930901B093D7
:1022C0000A01ADCE803269F48091E80082FFFCCF34
:1022D00067E08BE091E00E941D028BEF8093E800A5
:1022E0009ECE823209F09BCE8F8980931201EEEF51
:1022F000FFE7859194918B3F9C4D51F1E0E0F8E030
:1023000080910B0190910C01A0910D01B0910E01F3
:10231000803B9440A105B105F1F48091120180FD4C
:102320001AC0EE3F8AE0F80789F587E797E79183BF
:1023300080838091600080936E0288E19BE00FB6FD
:10234000F894A895809360000FBE9093600067CECC
:10235000EEEFFAE0D5CF808191818737974709F07A
:102360005ECEA89580916000886180936000809126
:102370006E0280936000EE3F2AE0F20789F08091C0
:10238000FE0A9091FF0A9183808349CE80819181DA
:102390008737980751F29093FF0A8093FE0AC5CFC2
:1023A0001092FF0A1092FE0A3ACE0E942A02DC0125
:1023B00012960D911C910115110509F4E8CED80172
:1023C000ED91FC910190F081E02DBE016B5E7F4F9D
:1023D000C8010995811123CEF80100851185EBCF45
:1023E000181619060CF41BCED2CEF1E0FF12BECEA9
:1023F0006DE571E004CF1F920F920FB60F9211247A
:102400002F933F938F939F93AF93BF9380917F02BE
:1024100090918002A0918102B09182023091590284
:1024200023E0230F2D3758F50196A11DB11D2093F0
:10243000590280937F0290938002A0938102B0930F
:10244000820280915A0290915B02A0915C02B0914D
:102450005D020196A11DB11D80935A0290935B020B
:10246000A0935C02B0935D02BF91AF919F918F9159
:102470003F912F910F900FBE0F901F90189526E857
:10248000230F0296A11DB11DD2CF1F920F920FB63E
:102490000F9211242F933F934F935F936F937F93EA
:1024A0008F939F93AF93BF93EF93FF938091B90066
:1024B000887F803609F44AC0F0F5883209F4A7C055
:1024C00018F5803109F49BC0B8F4882309F4F9C0E9
:1024D000883009F494C0FF91EF91BF91AF919F9123
:1024E0008F917F916F915F914F913F912F910F90BD
:1024F0000FBE0F901F901895883109F488C0803264
:1025000051F78093A70214C0803409F49DC040F4B1
:102510008033B9F38833F9F68093A70285ECB0C015
:10252000803509F485C0883509F496C0883499F659
:102530000E94220FD0CF883909F48CC038F5883733
:1025400029F050F4883611F0803729F683E0809323
:10255000A9021092380257C0883809F47BC080392C
:1025600019F0803809F0B7CF80913802803208F036
:1025700071C0E091380281E08E0F80933802809123
:10258000BB00F0E0E85EFD4F80833DC0803B39F04A
:10259000E0F4803A09F479C0883A09F09CCF84E0ED
:1025A0008093A9021092170210921602E091740211
:1025B000F091750209958091160281110FC081E09A
:1025C000809316021092F60109C0803C09F4A6CF50
:1025D000883C09F4A3CF883B09F07DCFE091170236
:1025E00081E08E0F80931702F0E0EA50FE4F808169
:1025F0008093BB00909117028091160229C08091B0
:1026000084028093BB0085EC8093BC0064CF9091E2
:10261000A6028091A502981758F5E091A60281E0E4
:102620008E0F8093A602F0E0EB57FD4F8081E9CF3B
:10263000E091A60281E08E0F8093A6028091BB00FC
:10264000F0E0EB57FD4F80839091A6028091A502A8
:102650009817C8F285E8D8CFE091A60281E08E0FE6
:102660008093A6028091BB00F0E0EB57FD4F808382
:102670008091A80281115CCF81E08093830284EA7B
:102680008093BC001092A90226CF85EC8093BC00F9
:102690001092A90280913802803230F4E091380221
:1026A000F0E0E85EFD4F10826091380270E0E0914A
:1026B0007202F091730288E192E00995109238025B
:1026C0000ACF1092A70234CFCF92DF92EF92FF92FF
:1026D0000F931F93CF93DF93CDB7DEB7C659D109C0
:1026E0000FB6F894DEBF0FBECDBF1092D602109287
:1026F000D50288EE93E0A0E0B0E08093D7029093FB
:10270000D802A093D902B093DA0229E431E03093E1
:10271000D4022093D3022FEF3FEF3093E0022093B7
:10272000DF021092260310922503809327039093D3
:102730002803A0932903B0932A038BE591E090939B
:102740002403809323031092EC031092EB03109266
:10275000EF031092F4031092F3038FEF93E0909342
:10276000F6038093F5031092F8031092F703909309
:10277000FA038093F9031092FC031092FB039093E9
:10278000FE038093FD03109200041092FF039093C8
:1027900002048093010410920404109203049093A5
:1027A0000604809305041092080410920704909385
:1027B0000A048093090410920C0410920B04909365
:1027C0000E0480930D041092100410920F04909345
:1027D0001204809311041092140410921304909325
:1027E0001604809315041092180410921704909305
:1027F0001A048093190410921C0410921B049093E5
:102800001E0480931D0453E050931F0430E2309364
:10281000EE0322E02093F0038FE38093F1038FE136
:102820008093F20345E0498391E09A8389E08B83AA
:10283000F4E0FC83E1EAED839E8365E86F835887CB
:1028400049878A8759E15B879C8759E25D873E8784
:1028500015E11F87188AB5E2B98B9A8B65E76B8BF8
:102860009C8B55E95D8B3E8B35E53F8B188EA5E63D
:10287000A98F1A8E31E83B8F2C8F4D8F9E8F8F8FB3
:1028800079E3C72EC8A219A31AA2BBA307E0D02ED2
:10289000DCA275E37DA31EA206E4E02EEFA20BE30B
:1028A000F02EF8A699A7AAA704E10BA76CA7FDA78D
:1028B0005EA79FA738AB29AB8AABCBAA1CAB1DAADE
:1028C000BEABDFAA78AF19AEEAAEFBAE9CAFADAF40
:1028D0000EAF6FAF2196FFAF219722965FAF229781
:1028E00023969FAF239724963FAF249725962FAF2B
:1028F000259726968FAF269727969FAF2797F6E1C5
:10290000FF2E2896FFAE289729969FAF299700E8BB
:102910002A960FAF2A9716E22B961FAF2B97BFEF81
:102920002C96BFAF2C97AFE72D96AFAF2D972E9675
:102930006FAF2E97F0E12F96FFAF2F9760965FAFA6
:1029400060970F2EF6E0EF2EF02D6196EFAE6197B7
:102950006296EFAF629763961FAE639764968FAFF0
:1029600064970F2EF0E3EF2EF02D6596EFAE65978E
:1029700066968FAF66970F2EF1E3EF2EF02D6796D8
:10298000EFAE679768968FAF68970F2EF2E3EF2E42
:10299000F02D6996EFAE69976A968FAF6A970F2E02
:1029A000F3E3EF2EF02D6B96EFAE6B976C968FAF37
:1029B0006C970F2EF4E3EF2EF02D6D96EFAE6D9722
:1029C0006E968FAF6E976F967FAF6F97A0963FAF63
:1029D000A097A1962FAFA19770ECA2967FAFA29778
:1029E000A3964FAFA397A4962FAFA497A596FFAE3B
:1029F000A597A6969FAFA697A7960FAFA797A8965D
:102A00001FAFA897A996BFAFA997AA96AFAFAA97ED
:102A1000AB966FAFAB97AC96FFAFAC97AD965FAF91
:102A2000AD97AE964FAFAE97AF96EFAFAF97E0963C
:102A30001FAEE097E1968FAFE1979AEBE2969FAFDA
:102A4000E297E3968FAFE3979BEBE4969FAFE49713
:102A5000E5968FAFE59794ECE6969FAFE697E796FD
:102A60008FAFE79795ECE8969FAFE897E9968FAF21
:102A7000E99788ECEA968FAFEA97EB963FAFEB9732
:102A8000EC962FAFEC97ED967FAFED97EE967FAF7C
:102A9000EE978DE790E00E94391E7C018DE7FE01E4
:102AA0003196D70101900D928A95E1F787E090E089
:102AB0000E94391E8C01DC0111961C921E92139605
:102AC000FC92EE9212978DE790E015969C938E9370
:102AD000149716961C920E944307FC01A385B485A7
:102AE000109709F073C01487038785859685D801F0
:102AF00014962D913C91820F931F96878587909114
:102B0000EE03892F869586958695977009F066C0A5
:102B10008093EF031091EF03812F90E00E94391E04
:102B20009093EC038093EB0381E09091F00391117B
:102B300001C080E01A5E810F809320041092D203BE
:102B40001092D1031092D4031092D3031092D603A3
:102B50001092D5031092D8031092D7031092DA0383
:102B60001092D9031092DC031092DB031092DE0363
:102B70001092DD031092E0031092DF031092E20343
:102B80001092E1031092E4031092E3031092E60323
:102B90001092E5038FEF9FEF9093E8038093E70394
:102BA0009093EA038093E90390E080E02091EF03A3
:102BB00028171906A9F0A4F0E091EB03F091EC03BB
:102BC000E80FF91F10820196F1CFDC018D919C91E5
:102BD00011970097D1F70D931C9387CF8F5F98CFF4
:102BE0001092CE031092CD0380E890E09093D00332
:102BF0008093CF0388E48093CB031092CC036CE6E0
:102C000071E085EC93E00E94360E60E08FE293E085
:102C10000E94C80C61E081E693E00E94C80C62E06B
:102C200083E993E0CA56DF4F0FB6F894DEBF0FBEBC
:102C3000CDBFDF91CF911F910F91FF90EF90DF906B
:102C4000CF900C94C80CCF93DF93CDB7DEB7EE973F
:102C50000FB6F894DEBF0FBECDBF789484B5826006
:102C600084BD84B5816084BD85B5826085BD85B530
:102C7000816085BD80916E00816080936E001092AE
:102C80008100809181008260809381008091810029
:102C900081608093810080918000816080938000BA
:102CA0008091910082608093910080919100816079
:102CB000809391008091900081608093900080913A
:102CC000C10084608093C1008091C10082608093C4
:102CD000C1008091C10081608093C1008091C300D8
:102CE00081608093C3008091C00082608093C000A7
:102CF0008091C20081608093C20080917A008460DC
:102D000080937A0080917A00826080937A0080912B
:102D10007A00816080937A0080917A008068809345
:102D20007A0010927E0210927102109270028091CD
:102D3000D70081608093D70080EA8093D80089B55E
:102D4000806189BD89B5826089BD09B400FEFDCF6F
:102D500061E070E080E090E00E94C7038091D800BD
:102D60008F7C80618093D8008091E000807F809389
:102D7000E0008091E1008E7E8093E1008DE0809301
:102D8000E200559A209A5D98289881E08093ED039F
:102D90000E94300B10927702109276021092B002CD
:102DA0001092D2020E94C40482E791E090937502CF
:102DB0008093740283E791E0909373028093720290
:102DC00080EE90E09093D0038093CF031092CE03D7
:102DD0001092CD038FEF9FEF9093E0028093DF027C
:102DE0001092100410920F048FEF9FE7909312043B
:102DF00080931104109200041092FF039093020438
:102E0000809301041092040410920304909306042A
:102E1000809305048E010F5F1F4F92E3292E86E0F9
:102E2000EBECF3E0DE01599601900D928A95E1F703
:102E30006091510390E080E0643020F4CE01499627
:102E40000E94B30A9093550380935403BC018FE210
:102E500093E00E94B50786E0EBECF3E0DE015F96BD
:102E600001900D928A95E1F76091830390E080E0F4
:102E7000643020F4CE014F960E94B30A90938703EA
:102E800080938603BC0181E693E00E94B50786E04B
:102E9000EBECF3E0DE01959601900D928A95E1F757
:102EA0006091B50390E080E0643020F4CE01859617
:102EB0000E94B30A9093B9038093B803BC0183E9DD
:102EC00093E00E94B5078FB7F89440907F0250902E
:102ED000800260908102709082028FBF80915203C5
:102EE000909153039093DE038093DD038091ED0373
:102EF00081110E94300B80918403909185039093FF
:102F0000D8038093D7038091ED0381110E94300B89
:102F10008091B6039091B7039093DA038093D9031D
:102F20008091ED0381110E94300B83ED92E00E94AD
:102F30001703181619060CF047C06BE671E0CE01B6
:102F4000C7960E94360E0E94B30297FD0DC08A30CC
:102F5000910551F089831A8241E050E0B801CE0119
:102F6000C7960E94590DEFCF70E060E0CE01C79682
:102F70000E947401833609F4B7C0893609F562E00E
:102F800070E0CE01C7960E9474018F3609F49FC08D
:102F9000863739F08336A1F487E791E00E941A0D55
:102FA0000FC062E771E0C8010E94360E65EC73E065
:102FB000C8010E94230E0E94070DC8010E94670EDF
:102FC000CE01C7960E94670E80917C02882309F487
:102FD00076C08091780290917902A0917A02B091A6
:102FE0007B02A3019201281B390B4A0B5B0BDA0110
:102FF000C9018097A105B10508F461C0409278022B
:103000005092790260927A0270927B0269ED71E0CF
:10301000CE01C1960E94360E609152037091530307
:10302000C8010E94C90DB801CE01C1960E94850D4C
:10303000C8010E94670E6091860370918703C801E2
:103040000E94C90D6DE971E0CE018B960E94360E8B
:10305000B801CE018B960E94230EBC01CE01C19611
:103060000E94850DCE018B960E94670EC8010E94BA
:10307000670E6091B8037091B903C8010E94C90D31
:103080006DE971E0CE018B960E94360EB801CE013B
:103090008B960E94230EBC01CE01C1960E94850D25
:1030A000CE018B960E94670EC8010E94670ECE016A
:1030B000C1960E94070DCE01C1960E94670E40E0A6
:1030C00050E0452B09F4ABCE0E940000A6CE64E090
:1030D00070E0CE01C7960E94740191E0813309F03F
:1030E00090E090937C026CCF62E070E0CE01C796D6
:1030F0000E947401823709F054C06BE671E0CE0182
:10310000C1960E94360E6FE273E0C8010E946F0EF6
:10311000B801CE01C1960E94850DC8010E94670EBC
:1031200061E673E0C8010E946F0E60E971E0CE01B4
:103130008B960E94360EB801CE018B960E94230E0C
:10314000BC01CE01C1960E94850DCE018B960E94D6
:10315000670EC8010E94670E63E973E0C8010E9410
:103160006F0E60E971E0CE018B960E94360EB801B9
:10317000CE018B960E94230EBC01CE01C1960E9407
:10318000850DCE018B960E94670EC8010E94670EC6
:10319000CE01C1960E94070DCE01C1960E94670E16
:1031A0000FCF833789F58FE2A82E83E0B82EF50183
:1031B000C2A0F2E2CF9E60011124BEAEADAEF12CF2
:1031C000E12CEDADFEAD3190FEAFEDAF46018E0CC2
:1031D0009F1CC4010E94501C381621F0632DC401AD
:1031E0000E94581CFFEFEF1AFF0A22E2E216F104D8
:1031F00041F732E3A30EB11C45ECA41643E0B4063C
:10320000B1F682E991E0CACE082E000C990B0E941B
:10321000A01A982EEBACFCAC670151E0C51AD1089E
:1032200086E0E81AF108CE14DF0428F49E2D8F2DD5
:103230007601C92ED82E6BE671E0C8010E94360EC9
:10324000ABACBCACEA14FB04D8F4CA14DB0408F43D
:103250005601EFA9F8ADEA0DFB1DD08010826FA9D1
:1032600078AD6E0D7F1DC8016115710509F44FC061
:103270000E949E0D8FA998ADA80EB91EF501D082AF
:1032800089819A81C12CD12C7601009719F00E9476
:10329000BE1A6B01C8010E94670E64E070E0CE01A7
:1032A000C7960E947401843609F49DC09CF582364D
:1032B00009F45BC00CF078C0813609F081CE929C95
:1032C000F0011124E15DFC4FD382C28262E070E024
:1032D000CE01C7960E947401682FC8010E94F50DA7
:1032E0006CE971E0CE018B960E94360EB801CE01DA
:1032F0008B960E94230E6FE971E00E940D0E0E94D2
:10330000070DCE018B960E94670EC80147CF0E9421
:103310008C0DB0CF823709F485C08A3709F4B4C068
:10332000863609F04DCE929CC0011124815D9C4FE0
:10333000FC01D186C0860E94150B62E070E0CE01D0
:10334000C7960E947401682FC8010E94F50D6CE9B0
:1033500071E0CE018B960E94360EB801CE018B969D
:103360000E94230E63EC71E0C8CF929CF0011124FF
:10337000E15DFC4FD182C08262E070E0CE01C79671
:103380000E947401682FC8010E94F50D6CE971E07C
:10339000CE018B960E94360EB801CE018B960E940C
:1033A000230E68EA71E0A9CF929CF0011124E15D3F
:1033B000FC4FD782C68262E070E0CE01C7960E94C1
:1033C0007401682FC8010E94F50D6CE971E0CE010F
:1033D0008B960E94360EB801CE018B960E94230E6A
:1033E00061EB71E08ACF929CF0011124E15DFC4F0A
:1033F000D582C48262E070E0CE01C7960E9474015B
:10340000682FC8010E94F50D6CE971E0CE018B9622
:103410000E94360EB801CE018B960E94230E6AEBF5
:1034200071E06BCF929CB0011124615D7C4FC801AB
:103430000E946F0E62E070E0CE01C7960E94740198
:10344000682FCE018B960E94F50D6CE971E0CE01DC
:10345000C1960E94360EBE01655D7F4FCE01C196BA
:103460000E94230E6CEC71E00E940D0EB8010E94C8
:10347000230E0E94070DCE01C1960E94670ECE0159
:103480008B960E94670E41CF929C70011124970188
:10349000215D3C4F7901F901138212821182108261
:1034A000158214822FEF3FEF378326831186108613
:1034B000C7010E94150B88E1E9E1F1E0D801019014
:1034C0000D928A95E1F7F7011187008762E070E0BD
:1034D000CE01C7960E947401682FCE018B960E9480
:1034E000F50D6CE971E0CE01C1960E94360EBE0169
:1034F000655D7F4FCE01C1960E94230E60ED71E0A5
:103500000E940D0E0E94070DCE01C1960E94670E0B
:10351000CE018B9643CECF93DF93C5ECD3E0E297F9
:103520008EA59FA5009711F00E94D51E83E0CF3293
:10353000D807A9F785EC93E0DF91CF910C94670E43
:10354000FC0188279927E89421912032E9F329305A
:1035500010F02E30C8F32B3241F02D3239F468943C
:1035600004C00E94FA1A820F911D219120532A3023
:10357000C0F31EF4909581959F4F08951F93FC0111
:1035800099278827BC01E89411911032E9F319308A
:1035900010F01E30C8F31B3251F01D3249F468940C
:1035A00006C00E94E51A610F711D811D911D1191C8
:1035B00010531A30B0F33EF4909580957095619554
:1035C0007F4F8F4F9F4F1F910895592F482F372FAF
:1035D000262F660F771F881F991F660F771F881F7A
:1035E000991F620F731F841F951F660F771F881F17
:1035F000991F08957AE0979F902D879F802D910DB8
:1036000011240895BB27FB015527AA27880F991F6E
:10361000AA1FA41710F0A41B83955051B9F7A05D01
:10362000AA3308F0A95DA193009779F7B111B1937E
:103630001192CB010C941C1BDC01FC01672F7191D2
:103640007723E1F7329704C07C916D937083629188
:10365000AE17BF07C8F308950E946E1B08F481E0FF
:103660000895E89409C097FB3EF490958095709575
:1036700061957F4F8F4F9F4F9923A9F0F92F96E9BE
:10368000BB279395F695879577956795B795F11133
:10369000F8CFFAF4BB0F11F460FF1BC06F5F7F4FD0
:1036A0008F4F9F4F16C0882311F096E911C07723E2
:1036B00021F09EE8872F762F05C0662371F096E8EB
:1036C000862F70E060E02AF09A95660F771F881FBA
:1036D000DAF7880F9695879597F90895990F00085E
:1036E000550FAA0BE0E8FEEF16161706E807F907D4
:1036F000C0F012161306E407F50798F0621B730B6F
:10370000840B950B39F40A2661F0232B242B252BEF
:1037100021F408950A2609F4A140A6958FEF811D92
:10372000811D08950E94A51B0C94161C0E94081C64
:1037300038F00E940F1C20F0952311F00C94FF1B11
:103740000C94051C11240C944A1C0E94271C70F335
:10375000959FC1F3950F50E0551F629FF001729F36
:10376000BB27F00DB11D639FAA27F00DB11DAA1F45
:10377000649F6627B00DA11D661F829F2227B00D92
:10378000A11D621F739FB00DA11D621F839FA00D1D
:10379000611D221F749F3327A00D611D231F849F6D
:1037A000600D211D822F762F6A2F11249F575040C4
:1037B0009AF0F1F088234AF0EE0FFF1FBB1F661F3F
:1037C000771F881F91505040A9F79E3F510580F008
:1037D0000C94FF1B0C944A1C5F3FE4F3983ED4F317
:1037E000869577956795B795F795E7959F5FC1F7AC
:1037F000FE2B880F911D9695879597F9089597F957
:103800009F6780E870E060E008959FEF80EC089586
:1038100000240A94161617061806090608950024AF
:103820000A9412161306140605060895092E039429
:10383000000C11F4882352F0BB0F40F4BF2B11F49D
:1038400060FF04C06F5F7F4F8F4F9F4F089557FDFC
:103850009058440F551F59F05F3F71F04795880FFE
:1038600097FB991F61F09F3F79F087950895121695
:1038700013061406551FF2CF4695F1DF08C0161641
:1038800017061806991FF1CF8695710561050894F2
:103890000895E894BB2766277727CB0197F9089509
:1038A000F999FECF92BD81BDF89A992780B5089508
:1038B000262FF999FECF1FBA92BD81BD20BD0FB64C
:1038C000F894FA9AF99A0FBE01960895052E97FB7F
:1038D0001EF400940E947D1C57FD07D00E94C71C57
:1038E00007FC03D04EF40C947D1C50954095309508
:1038F00021953F4F4F4F5F4F08959095809570955C
:1039000061957F4F8F4F9F4F08950E94E91CA59F9F
:10391000900DB49F900DA49F800D911D11240895CA
:103920002F923F924F925F926F927F928F929F92CF
:10393000AF92BF92CF92DF92EF92FF920F931F93BD
:10394000CF93DF93CDB7DEB7CA1BDB0B0FB6F8946E
:10395000DEBF0FBECDBF09942A88398848885F84AE
:103960006E847D848C849B84AA84B984C884DF801F
:10397000EE80FD800C811B81AA81B981CE0FD11D03
:103980000FB6F894DEBF0FBECDBFED010895A1E2E2
:103990001A2EAA1BBB1BFD010DC0AA1FBB1FEE1FC9
:1039A000FF1FA217B307E407F50720F0A21BB30B14
:1039B000E40BF50B661F771F881F991F1A9469F790
:1039C00060957095809590959B01AC01BD01CF01EC
:1039D0000895A29FB001B39FC001A39F700D811DE8
:1039E0001124911DB29F700D811D1124911D089508
:1039F0005058BB27AA270E94101D0C94161C0E9429
:103A0000081C38F00E940F1C20F039F49F3F19F475
:103A100026F40C94051C0EF4E095E7FB0C94FF1BB8
:103A2000E92F0E94271C58F3BA176207730784070F
:103A3000950720F079F4A6F50C94491C0EF4E09556
:103A40000B2EBA2FA02D0B01B90190010C01CA0158
:103A5000A0011124FF27591B99F0593F50F4503E03
:103A600068F11A16F040A22F232F342F4427585FF5
:103A7000F3CF469537952795A795F0405395C9F70D
:103A80007EF41F16BA0B620B730B840BBAF09150C5
:103A9000A1F0FF0FBB1F661F771F881FC2F70EC064
:103AA000BA0F621F731F841F48F487957795679537
:103AB000B795F7959E3F08F0B0CF9395880F08F023
:103AC0009927EE0F9795879508950E94791D0C947C
:103AD000161C0E940F1C58F00E94081C40F029F48C
:103AE0005F3F29F00C94FF1B51110C944A1C0C945D
:103AF000051C0E94271C68F39923B1F3552391F309
:103B0000951B550BBB27AA2762177307840738F04C
:103B10009F5F5F4F220F331F441FAA1FA9F335D0A9
:103B20000E2E3AF0E0E832D091505040E695001C5D
:103B3000CAF72BD0FE2F29D0660F771F881FBB1F17
:103B4000261737074807AB07B0E809F0BB0B802DF5
:103B5000BF01FF2793585F4F3AF09E3F510578F021
:103B60000C94FF1B0C944A1C5F3FE4F3983ED4F383
:103B7000869577956795B795F7959F5FC9F7880FF5
:103B8000911D9695879597F90895E1E0660F771F47
:103B9000881FBB1F621773078407BA0720F0621BD8
:103BA000730B840BBA0BEE1F88F7E09508950E9403
:103BB0002F1C88F09F5798F0B92F9927B751B0F074
:103BC000E1F0660F771F881F991F1AF0BA95C9F7A1
:103BD00014C0B13091F00E94491CB1E008950C94DA
:103BE000491C672F782F8827B85F39F0B93FCCF38D
:103BF000869577956795B395D9F73EF4909580951E
:103C0000709561957F4F8F4F9F4F08950E946E1B57
:103C100008F48FEF0895AA1BBB1B51E107C0AA1F30
:103C2000BB1FA617B70710F0A61BB70B881F991F5D
:103C30005A95A9F780959095BC01CD01089597FB01
:103C4000072E16F4009407D077FD09D00E940B1EB2
:103C500007FC05D03EF4909581959F4F089570958F
:103C600061957F4F0895EE0FFF1F0590F491E02DB1
:103C700009940F931F93CF93DF938230910510F433
:103C800082E090E0E0912304F091240430E020E011
:103C9000B0E0A0E0309799F42115310509F44AC04D
:103CA000281B390B24303105D8F58A819B81611599
:103CB000710589F1FB0193838283FE0111C040816C
:103CC00051810281138148175907E0F048175907BD
:103CD00099F4109761F012960C93129713961C9317
:103CE0003296CF01DF91CF911F910F9108950093EC
:103CF000230410932404F4CF2115310551F0421709
:103D0000530738F0A901DB019A01BD01DF01F80179
:103D1000C1CFEF01F9CF9093240480932304CDCF3A
:103D2000FE01E20FF31F81939193225031093983F1
:103D30002883D7CF2091210430912204232B41F4F2
:103D40002091150130911601309322042093210413
:103D500020911301309114012115310541F42DB743
:103D60003EB74091170150911801241B350BE0918B
:103D70002104F0912204E217F307A0F42E1B3F0B5D
:103D80002817390778F0AC014E5F5F4F24173507CD
:103D900048F04E0F5F1F50932204409321048193FB
:103DA00091939FCFF0E0E0E09CCFCF93DF9300971B
:103DB000E9F0FC01329713821282A0912304B091A2
:103DC0002404ED0130E020E01097A1F4208131813E
:103DD000820F931F20912104309122042817390764
:103DE00009F061C0F0932204E0932104DF91CF91A8
:103DF0000895EA01CE17DF07E8F54A815B819E014D
:103E000041155105B1F7E901FB83EA8349915991C5
:103E1000C40FD51FEC17FD0761F4808191810296D4
:103E2000840F951FE90199838883828193819B8305
:103E30008A83F0E0E0E012968D919C9113970097B1
:103E4000B9F52D913C911197CD010296820F931FE8
:103E500020912104309122042817390739F6309730
:103E600051F51092240410922304B0932204A093DD
:103E70002104BCCFD383C28340815181840F951F1D
:103E8000C817D90761F44E5F5F4F88819981480F49
:103E9000591F518340838A819B819383828321159B
:103EA000310509F0B0CFF0932404E09323049ECFB2
:103EB000FD01DC01C0CF13821282D7CFB0E0A0E0B9
:103EC000E4E6FFE10C94921C8C01009751F4CB01C5
:103ED0000E94391E8C01C801CDB7DEB7E0E10C9419
:103EE000AE1CFC01E60FF71F9C0122503109E217BE
:103EF000F30708F49DC0D901CD91DC911197C61745
:103F0000D70798F0C530D10530F3CE010497861756
:103F1000970708F3C61BD70B2297C193D1936D93D4
:103F20007C93CF010E94D51ED6CF5B01AC1ABD0A8F
:103F30004C018C0E9D1EA0912304B0912404512CA1
:103F4000412CF12CE12C109731F5809121049091B6
:103F500022048815990509F05CC04616570608F03A
:103F600058C08091130190911401009741F48DB7CE
:103F70009EB74091170150911801841B950BE817CB
:103F8000F90708F055C0F0932204E0932104F901E9
:103F900071836083A0CF8D919C91119712966C9044
:103FA000129713967C901397A815B90559F56C01D3
:103FB00042E0C40ED11CCA14DB0420F1AC014A1942
:103FC0005B09DA011296159780F062827382518341
:103FD0004083D9016D937C93E114F10471F0D70112
:103FE0001396FC93EE93129776CF22968C0F9D1F1B
:103FF000F90191838083F301EFCFF0932404E093E0
:10400000230469CF4816590608F42C017D01D30119
:104010009ACFCB010E94391E7C01009749F0AE0176
:10402000B8010E941B20C8010E94D51E870153CFF2
:1040300010E000E050CFFB01DC0102C001900D92C6
:1040400041505040D8F70895FB01DC0101900D92DA
:104050000020E1F7089510E0C6ECD0E004C0FE01B6
:104060000E94331E2196C73CD107C9F7F894FFCFB1
:1040700000C18081000000FFFFFFFF00E1000000A1
:10408000000000000025048000000000000000A0E7
:104090004100002042000070420000A0420000C821
:1040A00042000000007C06F806BA069F06004000A9
:1040B0005000600070000000006F028704900285CD
:1040C0000217039502F302000000004A061D06795C
:1040D00006F30516060306F4050D0A00312E302EF0
:1040E0003300693B763B00693B633B53696D666F08
:1040F00072676520456E67696E656572696E6700F7
:104100003A00633B733B736176656400633B003B3D
:10411000613B7361766564003B623B736176656405
:10412000003B633B7361766564003B643B7361767F
:104130006564003B663B7361766564003B723B00DF
:0C4140003B7A3B7265736574006C3B00B9
:00000001FF
