:100000000C94C7000C94EF000C94EF000C94EF00DC
:100010000C94EF000C94EF000C94EF000C94EF00A4
:100020000C94EF000C94EF000C94C00D0C942F0E68
:100030000C94EF000C94EF000C94EF000C94EF0084
:100040000C94EF000C94EF000C94EF000C94EF0074
:100050000C94EF000C94EF000C94EF000C946110E2
:100060000C94EF000C94EF000C94EF000C94EF0054
:100070000C94EF000C94EF000C94EF000C94EF0044
:100080000C94EF000C94EF000C94EF000C94EF0034
:100090000C94AB100C94EF000C94EF000C94EF0058
:1000A0000C94EF000C94EF000C94EF0000000000A3
:1000B000250028002B002E00310004040404040352
:1000C00004050202020204030202020206060606F8
:1000D000060604040202020404040802011040801F
:1000E000401020408040800802040180402010021F
:1000F00001108010204040200000000200090F0085
:1001000000030401000C00000000000000000000DB
:1001100000000000000000080B00020202000009BD
:100120000400000102020000052400100105240162
:1001300001010424020605240600010705810310BD
:10014000004009040100020A000000070502024005
:1001500000000705830240000004030904120100A7
:1001600002EF0201404123378000010102030141F7
:10017000726475696E6F204C4C43004172647569FE
:100180006E6F204D6963726F0000CA112619112429
:100190001FBECFEFDAE0DEBFCDBF11E0A0E0B1E0DF
:1001A000EAE4FDE302C005900D92A83BB107D9F740
:1001B00023E0A8EBB1E001C01D92A33BB207E1F739
:1001C00010E0C6ECD0E004C02197FE010E94A01C04
:1001D000C53CD107C9F70E9489140C94981E0C9451
:1001E0000000CF92DF92EF92FF920F931F93CF9375
:1001F000DF93D901E8016A01F9014217530714F0AE
:100200006901FA01882309F440C0CB016C157D0512
:100210000CF4C6019F018E179F070CF49C01A417D4
:10022000B50734F4CF01821B930B9C012C0D3D1DAF
:100230000D2C000CEE08FF08032E000C440B550B90
:100240002C193D094E095F09AEEFBFEF0E94F71A66
:100250009F01FF0F440B550B2C193D094E095F09F7
:100260000E94D81ADA01C9018F5F9F47A109B1091D
:100270008883998382E090E0DF91CF911F910F9165
:10028000FF90EF90DF90CF90089590E080E0F4CF62
:10029000FC0180915A02882311F13FB7F89482E063
:1002A0008093E9002091F200822F90E01816190641
:1002B00014F481E090E0882339F0289A44E64093D2
:1002C00059024091F1004083222339F02091F2003D
:1002D000211103C02BE62093E8003FBF08958FEF64
:1002E0009FEF089508950895FC01248135816217D8
:1002F000730748F480819181009729F0860F971F3A
:10030000FC018081089580E0089540914802509159
:100310004902209146023091470242175307B4F434
:100320009091E8009570E1F39091E80092FD19C07A
:100330008093F100809148029091490201968F7359
:100340009927892B19F48EEF8093E8008091480259
:10035000909149020196909349028093480281E06E
:10036000089580E00895EF92FF920F931F93CF932B
:10037000DF93F82E192FE62E042F81E0860F880FC9
:100380000E94850183E00E948501CF2DD12FEC0EC4
:10039000FD2EF11CCE15DF05B9F007FF13C0FE01DD
:1003A00084910E948501182F80E00E94850181239D
:1003B00021968111EFCFDF91CF911F910F91FF9087
:1003C000EF9008958881EDCF81E0F5CFDF92EF9235
:1003D000FF920F931F93CF93DF93D82E8A01EB01E7
:1003E0007B01E40EF51ECE15DF0559F0D7FE12C0D5
:1003F000FE0184910E94850121968111F4CF0FEFB7
:100400001FEFC801DF91CF911F910F91FF90EF90E7
:10041000DF9008958881EECF2FB7F894877080938E
:10042000E9009091E800892F807295FF04C09091B7
:10043000F20080E4891B2FBF0895615030F02091B5
:10044000F100FC0120830196F8CF289A84E680937E
:100450005902089580913E0281110DC082E080937F
:100460003A0284E080933B0210923D0210923C02DB
:1004700081E080933E028AE392E008950F931F93F8
:10048000CF93DF931F92CDB7DEB782E0898342E43A
:1004900050E067E171E080E80E94E6010E942A02D4
:1004A000DC0112960D911C910115110589F0D801FE
:1004B000ED91FC910280F381E02DBE016F5F7F4FD3
:1004C000C801099597FD04C0F80100851185ECCF9E
:1004D00089810F90DF91CF911F910F910895CF9354
:1004E000DF931F92CDB7DEB76983DC01ED91FC91FC
:1004F0000280F381E02D41E050E0BE016F5F7F4F4D
:1005000009950F90DF91CF91089583E08093E900E2
:100510008091F200882319F08AE38093E80008951F
:1005200083E00E940C0290E00895CF93DF931F9226
:10053000CDB7DEB7FC018485958597FD08C02FEF08
:100540003FEF358724870F90DF91CF910895CE013B
:1005500001960E944801019719F4898190E0F3CF38
:100560008FEF9FEFF0CF2FB7F89480915B029091BF
:100570005C02A0915D02B0915E022FBF8093B70232
:100580009093B802A093B902B093BA028FEA92E0B6
:100590000E94950297FF26C02FB7F89480915B02C6
:1005A00090915C02A0915D02B0915E022FBF4091DC
:1005B000B7025091B8026091B9027091BA02841BDF
:1005C000950BA60BB70B4091B3025091B40260910A
:1005D000B5027091B60284179507A607B707B0F267
:1005E0008FEF9FEF08950F931F93CF93DF931F9289
:1005F000CDB7DEB78C01FC018485958597FF0BC0D4
:10060000CE0101960E944801019771F4898190E022
:10061000F80195878487F801848595850F90DF918F
:10062000CF911F910F9108958FEF9FEFF1CFFC01B4
:100630008485958597FD0BC09FB7F89482E08093E1
:10064000E9008091F2009FBF90E0019608959FB766
:10065000F89482E08093E9008091F2009FBF90E0DF
:100660000895282F30E0F901E850FF4F9491F901E7
:10067000E752FF4F849126543F4FF90124912223E2
:1006800009F430C09923E9F091509F30D0F4E92F5C
:10069000F0E0E35BFC4F0C94A01C7B037F035C0346
:1006A00073037703610361036103820388038C038F
:1006B0009003960361039A03909180009F77909333
:1006C0008000E22FF0E0EE0FFF1FE455FF4FA591F1
:1006D000B4919FB7F894EC91611132C080958E234C
:1006E0008C939FBF0895909180009F7DE8CF90915B
:1006F0008000977FE4CF94B59F7794BDE2CF94B507
:100700009F7DFBCF909190009F7790939000D9CFE1
:10071000909190009F7DF9CF90919000977FF5CFB9
:100720009091C0009F779093C000CBCF9091C00074
:100730009F7DF9CF9091C200977F9093C200C1CF67
:100740008E2BCECF3FB7F89480913602909137022E
:10075000A0913802B091390226B5A89B05C02F3F61
:1007600019F00196A11DB11D3FBFBA2FA92F982FD7
:100770008827BC01CD01620F711D811D911D42E0D2
:10078000660F771F881F991F4A95D1F708958F929A
:100790009F92AF92BF92CF92DF92EF92FF924B0166
:1007A0005C010E94A2036B017C0189288A288B28A6
:1007B00059F00E94A2036C197D098E099F09683EB9
:1007C000734081059105A8F3FF90EF90DF90CF90E3
:1007D000BF90AF909F908F9008957F928F929F923D
:1007E000AF92BF92CF92DF92EF92FF920F931F933F
:1007F000CF93DF93C82E8B017A0180915A02811129
:1008000010C08FEF9FEFDF91CF911F910F91FF905D
:10081000EF90DF90CF90BF90AF909F908F907F90A0
:10082000089580914C0280FF05C08091E0008260B5
:100830008093E000CE2DDF2DD12C8AEFB82E8C2DA9
:100840008770982E8C2D8072882E8C2D8074782E37
:100850009AE3A92E209719F4DD2009F452C08C2DBB
:100860000E940C0281110AC0BA94BB2051F261E0CF
:1008700070E080E090E00E94C703ECCF8C171D066B
:1008800011F00CF08C2F9FB7F8949092E900209112
:10089000E80025FD02C09FBFDDCF282F30E0C21B3E
:1008A000D30B882029F08150A0F01092F100FBCFEB
:1008B000F801C7FC0AC0815050F041914093F1000B
:1008C000FACF44914093F10031968150D0F7020F56
:1008D000131FDD2021F0A092E800D12CDCCF809105
:1008E000E80085FD07C0A092E800DD24D39420979E
:1008F00091F2F3CF209779F6772069F2A092E80081
:10090000CACF5D9A84E680934B02C7017CCFCF9318
:10091000DF93EC0180911201882331F083E00E9483
:10092000ED031816190634F081E090E09B838A836A
:1009300080E090E0DF91CF9108952091F201260FA1
:100940003327331F21323105ECF420918502FC015D
:1009500090E080E0243069F082E00895A091F201F7
:100960002191AC014E525E4FA40FB52FB11D2C93B7
:100970000196861798F38091F201680F6093F20157
:1009800080E0089581E008951092850281E08093CF
:10099000840210925F0261E082E00E94310361E014
:1009A00083E00E943103E9EBF0E080818E7F808359
:1009B00080818D7F808388E48093B80085E4809374
:1009C000BC000895CF93DF9391E09093D1018823E9
:1009D000B9F0C091B800D091BA008091BC008A7B78
:1009E0008093BC0060E082E00E94310360E083E01D
:1009F0000E9431030E94C404D093BA00C093B8008F
:100A0000DF91CF9108958F929F92AF92BF92CF9234
:100A1000DF92EF92FF920F931F93CF93DF93D091CA
:100A2000AE02D13208F0D7C0182FC091AD020E949B
:100A3000A2036B017C018091850281116BC082E071
:100A400080938502109384028FEF8093830210922B
:100A50008202D0938102ADE8B2E0E1E6F2E080E00C
:100A6000D81391C01092600280916002CC0FC82B05
:100A7000C093600280915F02813009F088C01092BB
:100A80005F020E94A2036B017C018091600280934F
:100A9000BB008091870290918802A0918902B09159
:100AA0008A02892B8A2B8B2BA1F00E94A203009132
:100AB0008702109188022091890230918A026C1974
:100AC0007D098E099F09061717072807390708F4BB
:100AD00042C08091BC0083FDD8CF85EC8093BC00E0
:100AE0000E94A2036B017C0180918502823009F48F
:100AF00050C0809183028F3F09F46FC080918302C0
:100B0000803209F46CC080918302803309F469C09B
:100B100084E026C08091870290918802A09189028A
:100B2000B0918A02892B8A2B8B2B09F484CF0E94E7
:100B3000A2038090870290908802A0908902B090D2
:100B40008A026C197D098E099F0986169706A806E8
:100B5000B90608F070CF809186020E94E20485E019
:100B600010928C021092AE0210928B02DF91CF9104
:100B70001F910F91FF90EF90DF90CF90BF90AF90BB
:100B80009F908F9008959D9191938F5F69CF85EE8F
:100B9000A5CF8091870290918802A0918902B0919F
:100BA0008A02892B8A2B8B2B09F49ECF0E94A203E9
:100BB00000918702109188022091890230918A0267
:100BC0006C197D098E099F09061717072807390731
:100BD00008F08ACFC0CF81E0C3CF80E0C1CF82E0F0
:100BE000BFCF83E0BDCF0895E091530280915202C0
:100BF000E81730F4F0E0EB5EFD4F808190E008955F
:100C00008FEF9FEF089590915302809152022FEF42
:100C10003FEF981748F4E92FF0E0EB5EFD4F20819D
:100C200030E09F5F90935302C90108958091520272
:100C300090915302891B990B0895CF92DF92EF9206
:100C4000FF920F931F93CF93DF937C01CB018A0117
:100C500020918B02222389F0EB016B01C40ED51E7B
:100C6000CC15DD0569F06991D701ED91FC910190FA
:100C7000F081E02DC7010995F3CF642F0E949D04F8
:100C8000C801DF91CF911F910F91FF90EF90DF90FE
:100C9000CF900895CF93DF931F92CDB7DEB76983CE
:100CA00020918B022223F9F02091AE02203258F0DD
:100CB00021E030E0FC013383228390E080E00F905C
:100CC000DF91CF91089580918C02E82FF0E0E357F7
:100CD000FD4F998190838F5F80938C028093AE0249
:100CE00081E090E0ECCF61E0CE0101960E949D048E
:100CF000F7CF90E080E00895DC01FB0112962C9183
:100D00001297848195812817190641F49181808179
:100D1000813A31F49D7F81E0913009F080E00895BF
:100D20008132E1F79B3029F482811F968C9381E018
:100D300008959A3099F7828150968C93F8CFDC0110
:100D4000FB0188E4808389E4818384E482831D96A7
:100D50009C911D979F709F5B93831D968D919C9195
:100D600024E0969587952A95E1F78F708F5B8483B1
:100D700085E00895EF92FF920F931F93CF93DF9337
:100D8000FB012081213889F52381223271F5DC01B4
:100D900012964C91248135814217130631F58C014E
:100DA000FC01C385D485F12CE12C209791F04C8176
:100DB0005D816A817B818E81811180E80E94E601DC
:100DC0008F3F980759F0E80EF91E0990D881C02D81
:100DD000ECCF81E0D8011F968C93C701DF91CF91B2
:100DE0001F910F91FF90EF90089590E080E0F6CF73
:100DF000CF93DF93CDB7DEB769970FB6F894DEBF18
:100E00000FBECDBFFC01DB018C918F5F8C939E01E7
:100E10002D5F3F4F8DE0D9011D928A95E9F729E0BA
:100E2000298384E08A8391E09D8383E08E832A87EF
:100E300021E22B879C879D879F8722E2288B27E0D2
:100E40002B8B25E02C8B8E8B20E430E0388F2F8B82
:100E5000998F82818B8395858685998B8A8B8381F7
:100E600080688D8B49E150E0BE016F5F7F4F80E06D
:100E70000E94E60169960FB6F894DEBF0FBECDBFA3
:100E8000DF91CF910895CF93DF938091C9018111B4
:100E900067C081E08093BC018093BD0122EC31E00A
:100EA0003093BF012093BE011092C1011092C00186
:100EB0002DE131E03093B9012093B8011092C401C3
:100EC0001092C3011092C6011092C5018093C70110
:100ED0008093C80181EC8093C2010E942A02FC0128
:100EE00081819091BC01482F490F5527551F4830EB
:100EF00051059CF5A281B381109709F528EB31E0EB
:100F00003383228320812093BA018093BB01809197
:100F1000BD01820F80832091BE01A22FB091BF013D
:100F20008A2F821B8917C8F481813D91C82FD0E098
:100F3000C050DF4F38838F5F8183F2CFD90118967D
:100F40002D913C91199721153105C1F728EB31E01E
:100F500019963C932E931897D5CF81E08093C901C1
:100F600088EB91E0DF91CF9108954F925F926F925D
:100F70007F928F929F92AF92BF92CF92DF92EF9229
:100F8000FF920F931F93CF93DF93EC018B01888522
:100F90009985892B09F4ABC08D85813061F0823051
:100FA00071F18D85813009F477C0823009F49BC0DE
:100FB00010E000E09CC08A899B892E853F858217BE
:100FC000930718F401969B8B8A8B88899989880FDF
:100FD000991FEC89FD89E80FF91F11830083888927
:100FE00099892E853F85215031098217930719F47D
:100FF000198A188AD6CF0196998B888BD2CFEC8824
:10100000FD888A899B89892B59F481E090E09B8B2C
:101010008A8BF70171836083F70113830283C1CF49
:101020006E857F8590E080E00E94C71920E030E067
:1010300048EC52E40E94D71B4B015C01F701608130
:10104000718190E080E00E94C7192B013C01A5014D
:10105000940160E070E080E89FE30E946A1B9B01BE
:10106000AC01C301B2010E94041A2B013C01B8017A
:1010700090E080E00E94C719A50194010E94041A23
:101080009B01AC01C301B2010E946B1B0E94491C71
:10109000F70171836083C0CFEA88FB88F0E0E0E06D
:1010A00030E020E010E000E0EE15FF0501F1AC8932
:1010B000BD89CF01880F991FA80FB91F8D919C91F1
:1010C000B7010E94781C280F391F060F171FE21660
:1010D000F30638F4C901B7010E94781C9C01060F81
:1010E000171F3196E1CFEC89FD8900811181EE81D6
:1010F000FF818A819B81E81BF90BCC80DD80888190
:101100009981C80ED91EE017F10778F10C151D055D
:1011100008F48601F12CE12C30E020E0A9019801CF
:101120002C193D094E095F09AFEFBFEF0E94F71A76
:101130009F0150E040E02C193D094E095F090E94D3
:10114000D81A3C872B87C901DF91CF911F910F914E
:10115000FF90EF90DF90CF90BF90AF909F908F90D7
:101160007F906F905F904F9008958F01D3CFCF9273
:10117000DF92EF92FF920F931F93CF93C82F81E0DE
:1011800080938B02C093AD0210928C021092AE023B
:101190008FEF92E00E944A0681E00E9403050E94C0
:1011A000A2036B017C0180918502811165C081E001
:1011B00080938502809384029FEF90938302109224
:1011C0008202809381028093600280916002CC0F42
:1011D000C82BC093600280915F02813009F08CC0FF
:1011E00010925F020E94A2036B017C018091600259
:1011F0008093BB008091870290918802A091890220
:10120000B0918A02892B8A2B8B2BA1F00E94A2031A
:1012100000918702109188022091890230918A0200
:101220006C197D098E099F090617170728073907CA
:1012300008F443C08091BC0083FDD8CF85EC809337
:10124000BC000E94A2036B017C0180918502813069
:1012500009F454C080918202823008F071C08091FC
:101260008202A1E6B2E0E5E1F2E090E0981751F1E8
:101270002D9121939F5FFACF8091870290918802F0
:10128000A0918902B0918A02892B8A2B8B2B09F4B9
:101290008ACF0E94A20300918702109188022091B8
:1012A000890230918A026C197D098E099F090617FF
:1012B00017072807390708F076CF809186020E9429
:1012C000E20480E010925302809352028FEF92E08A
:1012D0000E940306C82F8FEF92E00E94030620E0D1
:1012E0003C2FA901482BCA01CF911F910F91FF906C
:1012F000EF90DF90CF90089585EEA1CF8091870287
:1013000090918802A0918902B0918A02892B8A2B40
:101310008B2B09F49ACF0E94A203009187021091AF
:1013200088022091890230918A026C197D098E0908
:101330009F09061717072807390708F086CFBDCF82
:1013400082E08FCF0F931F93CF93DF938C01E62F13
:10135000F0E0EE0FFF1FEB5DFE4FC081D181C36057
:10136000D168F80182819381C82BD92B8481958122
:10137000C82BD92B808191E090938B028093AD0292
:1013800010928C021092AE0261E08FEF92E00E9408
:101390004A066D2F8FEF92E00E944A066C2F8FEF66
:1013A00092E00E944A0681E00E94030560E070E03E
:1013B000CB010E94C70383E290E00197F1F760E060
:1013C00070E0CB010E94C70361E0F80180810E94B8
:1013D000B70897FFF4CF60E0F80180810E94B7085A
:1013E000F8012181022E02C0969587950A94E2F7B2
:1013F000222329F08115F8E09F0708F0906FDF9114
:10140000CF911F910F9108958F929F92AF92BF92AB
:10141000CF92DF92EF92FF920F931F93CF93DF93C0
:10142000CDB7DEB7ADB6BEB68091AE032DB73EB731
:10143000281B31090FB6F8943EBF0FBE2DBF8DB7E4
:101440009EB701966C01E0907D03F12C80917903A9
:1014500090917A03D601FC019F01281B390B2E15B0
:101460003F051CF421912D93F7CF80917E038823B3
:1014700059F1809175039091760328E097FD09C09A
:1014800068E671E00E948C1C6DE270E00E948C1C8A
:10149000262F809177039091780368E097FD08C02C
:1014A00068E671E00E948C1C6DE270E00E948C1C6A
:1014B000F601EE0DFF1D90E1699FB0011124262B6E
:1014C0002083F70131967F0186010E0D1F1D2091AB
:1014D0008303309184034091810350918203609192
:1014E0005F037091600380917F0381700E94F1001F
:1014F000E80EF91E86010E0D1F1D20918703309105
:101500008803409185035091860360916103709137
:10151000620380917F03869581700E94F100E80E3E
:10152000F91E86010E0D1F1D20918B0330918C0337
:101530004091890350918A03609163037091640321
:1015400080917F0382FB882780F90E94F100E80EDA
:10155000F91E86010E0D1F1D20918F0330919003FF
:1015600040918D0350918E036091650370916603E5
:1015700080917F0383FB882780F90E94F100E80EA9
:10158000F91E86010E0D1F1D2091930330919403C7
:1015900040919103509192036091670370916803A9
:1015A00080917F03829581700E94F100E80EF91E00
:1015B00086010E0D1F1D20919703309198034091D5
:1015C0009503509196036091690370916A0380912D
:1015D0007F0385FB882780F90E94F100E80EF91E41
:1015E00086010E0D1F1D20919B0330919C0340919D
:1015F000990350919A0360916D0370916E038091ED
:10160000800381700E94F100E80EF91E86010E0D24
:101610001F1D20919F033091A00340919D03509185
:101620009E0360916B0370916C038091800386959B
:1016300081700E94F100E80EF91E86010E0D1F1D3B
:101640002091A3033091A4034091A1035091A203E0
:1016500060916F03709170038091800382FB8827F3
:1016600080F90E94F100E80EF91E86010E0D1F1D83
:101670002091A7033091A8034091A5035091A603A0
:1016800060917103709172038091800383FB8827BE
:1016900080F90E94F1008E0D9F1D8601080F191F11
:1016A0002091AB033091AC034091A9035091AA0360
:1016B00060917303709174038091800382958170AF
:1016C0000E94F1000E9443074C014091AE038091BB
:1016D000AD0350E07A01FFEFEF1AFF0A2DB73EB7D6
:1016E0002E193F090FB6F8943EBF0FBE2DBF0DB7A0
:1016F0001EB70F5F1F4FEDB7FEB78183B601C8015C
:1017000001960E94881EF4018381A701B8018064BC
:101710000E94ED030FB6F894BEBE0FBEADBEDF91C2
:10172000CF911F910F91FF90EF90DF90CF90BF90DE
:10173000AF909F908F900895CF92DF92EF92FF929B
:101740000F931F93CF93DF93EC018AE090E09F8784
:101750008E87198A188A1B8A1A8A81E090E09F8BEB
:101760008E8B6A878AE0689F800111246E01EAE00F
:10177000CE0ED11C7E010C1B1D0BC8018E0D9F1DB2
:101780000E94C21AF70181937F01CE16DF06A9F7E6
:1017900088859985009779F022E02D879F878E872D
:1017A00084E090E00E94A61C9D8B8C8BFC01118232
:1017B000108213821282DF91CF911F910F91FF90BF
:1017C000EF90DF90CF90089542E050E061E571E046
:1017D0008FEA92E00C948704CF93DF93FC0144815D
:1017E0005581608171818FEA92E00E948704EC014B
:1017F0000E94E40B8C0F9D1FDF91CF9108950F93F2
:101800001F93CF93DF93EC0188819981009759F062
:101810002A813B812617370730F081E0DF91CF9195
:101820001F910F9108958B016F5F7F4F0E94CB1D19
:10183000009759F0998388831B830A832C813D810B
:10184000232B59F7FC011082E8CF80E0E7CFEF921D
:10185000FF920F931F93CF93DF936115710541F4AE
:1018600080E0DF91CF911F910F91FF90EF9008954D
:1018700041155105B1F07B01EC010C811D81040F74
:10188000151FB8010E94FF0B882351F3288139816D
:101890008C819D81B701820F931F0E94911E1D8331
:1018A0000C8381E0DECFFB01448155816081718131
:1018B0000C94270CCF93DF93EC01888199810097DA
:1018C00011F00E94421D198218821D821C821B8207
:1018D0001A82DF91CF910895EF92FF920F931F9399
:1018E000CF93DF93EC017B01198218821B821A824D
:1018F0001D821C82FB0101900020E9F731978F01C6
:10190000061B170BB8010E94FF0B811109C0CE0105
:10191000DF91CF911F910F91FF90EF900C945A0C93
:101920001D830C83B70188819981DF91CF911F912D
:101930000F91FF90EF900C94911EEF92FF920F93F6
:101940001F93CF93DF938C017B01EB010990002063
:10195000E9F72197C61BD70BBE010E94FF0B81112F
:1019600009C0C801DF91CF911F910F91FF90EF90B7
:101970000C945A0CF801D583C483B70180819181FE
:10198000DF91CF911F910F91FF90EF900C94911EDA
:101990000F931F93CF93DF93CDB7DEB761970FB649
:1019A000F894DEBF0FBECDBF8C01CB01F8011182D0
:1019B000108213821282158214824AE0BE016F5F88
:1019C0007F4F0E949D19BE016F5F7F4FC8010E942B
:1019D0009D0C61960FB6F894DEBF0FBECDBFDF91B0
:1019E000CF911F910F910895CF93DF9300D0CDB782
:1019F000DEB7FC01118210821382128215821482DA
:101A000069831A82BE016F5F7F4F0E949D0C0F9009
:101A10000F90DF91CF910895CF93DF93EC01FB01FD
:101A200001900020E9F73197AF01461B570B0E9448
:101A3000270C811103C0CE010E945A0CCE01DF9108
:101A4000CF910895CF93DF93EC01FB014481558141
:101A5000608171810E94270C811103C0CE010E9418
:101A60005A0CCE01DF91CF910895FC0180819181C4
:101A7000009711F00C94421D089585ED8093BC00F1
:101A80008091870290918802A0918902B0918A0288
:101A90000796A11DB11D23E0B695A795979587954B
:101AA0002A95D1F72091BC0024FD03C01092850235
:101AB0000895409187025091880260918902709147
:101AC0008A02452B462B472B69F30097A105B105E8
:101AD00041F025E32A95F1F700000197A109B1092A
:101AE000E1CF809186020C94E204BF92CF92DF9204
:101AF000EF92FF920F931F93CF93DF93FC01E28449
:101B0000FAE0EF9E70011124EC0110E000E0B990C2
:101B10006701C00ED11EC6010E94C21AB81621F07C
:101B20006B2DC6010E94CA1A0F5F1F4F0A301105A4
:101B300071F7DF91CF911F910F91FF90EF90DF90A0
:101B4000CF90BF900895CF93DF93EC01798768879A
:101B50000E94750D88859985009779F022E02D8780
:101B60009F878E8784E090E00E94A61C9D8B8C8BC3
:101B7000FC011182108213821282DF91CF910895AD
:101B80001F920F920FB60F9211248F939F93809103
:101B9000E1009091E100937F9093E10083FF0FC0FB
:101BA0001092E90091E09093EB001092EC0092E328
:101BB0009093ED0010925A0298E09093F00082FF0B
:101BC00022C093E09093E9009091F200992319F0DC
:101BD0009AE39093E80090914B02992341F0909101
:101BE0004B02915090934B02911101C05D989091DE
:101BF0005902992341F090915902915090935902C2
:101C0000911101C0289884FF18C08091E2008E7E57
:101C100081608093E2008091E1008F7E8093E100FB
:101C200080914C028E7E806180934C029F918F91B7
:101C30000F900FBE0F901F90189580FFF7CF8091E7
:101C4000E2008E7E80618093E2008091E1008E7ED2
:101C50008093E10080914C028E7E8160E5CF1F92DF
:101C60000F920FB60F921124CF92DF92EF92FF9254
:101C70000F931F932F933F934F935F936F937F9394
:101C80008F939F93AF93BF93EF93FF93CF93DF9384
:101C9000CDB7DEB76C97DEBFCDBF1092E900809163
:101CA000E80083FF25C068E0CE0145960E941D0232
:101CB00082EF8093E8008D8987FF39C09091E8001A
:101CC00090FFFCCF982F907609F034C19E894F8900
:101CD000588D2F89F88C911131C0803861F5809131
:101CE0004D028093F1001092F1008EEF8093E80096
:101CF0006C960FB6F894DEBF0FBECDBFDF91CF91CB
:101D0000FF91EF91BF91AF919F918F917F916F91D3
:101D10005F914F913F912F911F910F91FF90EF9005
:101D2000DF90CF900F900FBE0F901F9018959EEFF1
:101D30009093E800C7CF1092F100D5CF913059F4BD
:101D40008111D3CF4130510581F680914D028D7FB5
:101D500080934D02CACF933049F48111C6CF4130F0
:101D6000510519F680914D028260F2CF953041F411
:101D70008091E80080FFFCCF20682093E300B5CF7E
:101D8000963009F0A9C00B8D1C8D22E01092E9005D
:101D90001092490210924802F2122EC0109247028D
:101DA000109246020E943E021F8299E09983FA82B5
:101DB00091E09E8390EA98879AEF99872091480254
:101DC00030914902275F3F4F3C832B838D831092D4
:101DD000E9001092490210924802109347020093C2
:101DE000460249E050E0BE016F5F7F4F80E00E94F5
:101DF000E6010E943E0279CF10934702009346020B
:101E00000E942A02DC0112960D911C910115110508
:101E100009F451C1D801ED91FC910480F581E02DC8
:101E2000BE016B5E7F4FC8010995009709F03EC166
:101E3000F80100851185EACFF3E0FF120EC08F890B
:101E4000882309F440C0823061F440E86DE08BE7FC
:101E500091E00E94B301811148CF81E28093EB00B1
:101E600047CF813029F440E86BE08FE691E0F1CF75
:101E7000833099F70E942A02DC011296ED90FC90C3
:101E80008E010F5F1F4F6801E114F10479F0D70153
:101E9000ED91FC910680F781E02DB801C70109950D
:101EA000080F111DF701E084F184EECFD8011C92D8
:101EB000F60101900020E9F73197BF016C197D0907
:101EC00040E0C601C6CF69E571E0FB01449150E0F6
:101ED00080E80E94E60109CF973009F4BECF983020
:101EE00021F481E08093F10000CF993009F0FDCE1C
:101EF000837009F0B2CFE1E0F1E081E031E096E3F8
:101F00002191222371F08093E9003093EB00DF01EF
:101F100011972C912093EC009093ED008F5F873008
:101F200079F78EE78093EA001092EA008F89809318
:101F30005A02DBCE8B8D9C8D1092E90010924902E3
:101F4000109248029093470280934602898D811136
:101F500092C08E899D89913A49F4813209F07DCFF2
:101F600047E050E06BE071E080E0B3CF913209F0E0
:101F700074CF833269F48F89988DB0E0A0E08093AC
:101F8000070190930801A0930901B0930A01ADCE17
:101F9000803269F48091E80082FFFCCF67E08BE03B
:101FA00091E00E941D028BEF8093E8009ECE82326A
:101FB00009F09BCE8F8980931201EEEFFFE78591A8
:101FC00094918B3F9C4D51F1E0E0F8E080910B0142
:101FD00090910C01A0910D01B0910E01803B9440B5
:101FE000A105B105F1F48091120180FD1AC0EE3F08
:101FF0008AE0F80789F587E797E7918380838091E6
:10200000600080934A0288E19BE00FB6F894A8959F
:10201000809360000FBE9093600067CEEEEFFAE011
:10202000D5CF808191818737974709F05ECEA895FB
:102030008091600088618093600080914A02809363
:102040006000EE3F2AE0F20789F08091FE0A90914D
:10205000FF0A9183808349CE8081918187379807D9
:1020600051F29093FF0A8093FE0AC5CF1092FF0AA7
:102070001092FE0A3ACE0E942A02DC0112960D91BD
:102080001C910115110509F4E8CED801ED91FC91E0
:102090000190F081E02DBE016B5E7F4FC801099574
:1020A000811123CEF80100851185EBCF1816190692
:1020B0000CF41BCED2CEF1E0FF12BECE6DE571E086
:1020C00004CF1F920F920FB60F9211242F933F93BC
:1020D0008F939F93AF93BF9380915B0290915C022B
:1020E000A0915D02B0915E023091350223E0230F92
:1020F0002D3758F50196A11DB11D2093350280930F
:102100005B0290935C02A0935D02B0935E028091AB
:10211000360290913702A0913802B09139020196AF
:10212000A11DB11D8093360290933702A09338020F
:10213000B0933902BF91AF919F918F913F912F91B1
:102140000F900FBE0F901F90189526E8230F029650
:10215000A11DB11DD2CF1F920F920FB60F92112465
:102160002F933F934F935F936F937F938F939F939F
:10217000AF93BF93EF93FF938091B900887F803630
:1021800009F44AC0F0F5883209F4A7C018F5803187
:1021900009F49BC0B8F4882309F4F9C0883009F425
:1021A00094C0FF91EF91BF91AF919F918F917F91DB
:1021B0006F915F914F913F912F910F900FBE0F90B4
:1021C0001F901895883109F488C0803251F78093A8
:1021D000830214C0803409F49DC040F48033B9F305
:1021E0008833F9F68093830285ECB0C0803509F41A
:1021F00085C0883509F496C0883499F60E943D0D53
:10220000D0CF883909F48CC038F5883729F050F4DC
:10221000883611F0803729F683E08093850210928A
:10222000140257C0883809F47BC0803919F080380F
:1022300009F0B7CF80911402803208F071C0E091AC
:10224000140281E08E0F809314028091BB00F0E0B5
:10225000EC50FE4F80833DC0803B39F0E0F4803A83
:1022600009F479C0883A09F09CCF84E08093850214
:102270001092F3011092F201E0915002F09151029C
:1022800009958091F20181110FC081E08093F201E4
:102290001092D20109C0803C09F4A6CF883C09F411
:1022A000A3CF883B09F07DCFE091F30181E08E0F51
:1022B0008093F301F0E0EE52FE4F80818093BB00EB
:1022C0009091F3018091F20129C080916002809386
:1022D000BB0085EC8093BC0064CF9091820280911A
:1022E0008102981758F5E091820281E08E0F809369
:1022F0008202F0E0EF59FD4F8081E9CFE091820248
:1023000081E08E0F809382028091BB00F0E0EF5954
:10231000FD4F808390918202809181029817C8F2CC
:1023200085E8D8CFE091820281E08E0F809382020F
:102330008091BB00F0E0EF59FD4F808380918402D3
:1023400081115CCF81E080935F0284EA8093BC00BE
:102350001092850226CF85EC8093BC0010928502F6
:1023600080911402803230F4E0911402F0E0EC50DD
:10237000FE4F10826091140270E0E0914E02F091E5
:102380004F0284EF91E00995109214020ACF109247
:10239000830234CFCF92DF92EF92FF920F931F937D
:1023A000CF93DF93CDB7DEB7C659D1090FB6F894F6
:1023B000DEBF0FBECDBF1092B2021092B10288EE06
:1023C00093E0A0E0B0E08093B3029093B402A093B6
:1023D000B502B093B60221E331E03093B00220930E
:1023E000AF022FEF3FEF3093BC022093BB0210925D
:1023F0000203109201038093030390930403A093BC
:102400000503B093060383E491E090930003809367
:10241000FF0210927A031092790310927D031092BA
:102420008203109281038FEF93E090938403809353
:102430008303109286031092850390938803809300
:10244000870310928A031092890390938C038093E0
:102450008B0310928E0310928D03909390038093C0
:102460008F031092920310929103909394038093A0
:102470009303109296031092950390939803809380
:10248000970310929A031092990390939C03809360
:102490009B0310929E0310929D039093A003809340
:1024A0009F031092A2031092A1039093A403809320
:1024B000A3031092A6031092A5039093A803809300
:1024C000A7031092AA031092A9039093AC038093E0
:1024D000AB0353E05093AD0330E230937C0322E032
:1024E00020937E038FE380937F038FE180938003AB
:1024F00045E0498391E09A8389E08B83F4E0FC8393
:10250000E1EAED839E8365E86F83588749878A8770
:1025100059E15B879C8759E25D873E8715E11F87FC
:10252000188AB5E2B98B9A8B65E76B8B9C8B55E962
:102530005D8B3E8B35E53F8B188EA5E6A98F1A8EF5
:1025400031E83B8F2C8F4D8F9E8F8F8F79E3C72E75
:10255000C8A219A31AA2BBA307E0D02EDCA275E380
:102560007DA31EA206E4E02EEFA20BE3F02EF8A658
:1025700099A7AAA704E10BA76CA7FDA75EA79FA731
:1025800038AB29AB8AABCBAA1CAB1DAABEABDFAA6A
:1025900078AF19AEEAAEFBAE9CAFADAF0EAF6FAF8A
:1025A0002196FFAF219722965FAF229723969FAF88
:1025B000239724963FAF249725962FAF25972696ED
:1025C0008FAF269727969FAF2797F6E1FF2E289685
:1025D000FFAE289729969FAF299700E82A960FAF5C
:1025E0002A9716E22B961FAF2B97BFEF2C96BFAF03
:1025F0002C97AFE72D96AFAF2D972E966FAF2E97F6
:10260000F0E12F96FFAF2F9760965FAF60970F2E88
:10261000F6E0EF2EF02D6196EFAE61976296EFAF88
:10262000629763961FAE639764968FAF64970F2E81
:10263000F0E3EF2EF02D6596EFAE659766968FAFBF
:1026400066970F2EF1E3EF2EF02D6796EFAE6797AA
:1026500068968FAF68970F2EF2E3EF2EF02D6996F4
:10266000EFAE69976A968FAF6A970F2EF3E3EF2E5E
:10267000F02D6B96EFAE6B976C968FAF6C970F2E1D
:10268000F4E3EF2EF02D6D96EFAE6D976E968FAF53
:102690006E976F967FAF6F97A0963FAFA097A1966A
:1026A0002FAFA19770ECA2967FAFA297A3964FAFE2
:1026B000A397A4962FAFA497A596FFAEA597A6962D
:1026C0009FAFA697A7960FAFA797A8961FAFA897FB
:1026D000A996BFAFA997AA96AFAFAA97AB966FAFCF
:1026E000AB97AC96FFAFAC97AD965FAFAD97AE969C
:1026F0004FAFAE97AF96EFAFAF97E0961FAEE097B4
:10270000E1968FAFE1979AEBE2969FAFE297E3965F
:102710008FAFE3979BEBE4969FAFE497E5968FAF7F
:10272000E59794ECE6969FAFE697E7968FAFE7972D
:1027300095ECE8969FAFE897E9968FAFE99788EC1C
:10274000EA968FAFEA97EB963FAFEB97EC962FAFF9
:10275000EC97ED967FAFED97EE967FAFEE978DE716
:1027600090E00E94A61C7C018DE7FE013196D70106
:1027700001900D928A95E1F787E090E00E94A61CF7
:102780008C01DC0111961C921E921396FC92EE9223
:1027900012978DE790E015969C938E93149716965A
:1027A0001C920E944307FC01A385B485109709F091
:1027B00073C01487038785859685D80114962D915B
:1027C0003C91820F931F9687858790917C03892F78
:1027D000869586958695977009F066C080937D03EF
:1027E00010917D03812F90E00E94A61C90937A03A4
:1027F0008093790381E090917E03911101C080E084
:102800001A5E810F8093AE031092600310925F03F3
:10281000109262031092610310926403109263039A
:10282000109266031092650310926803109267037A
:1028300010926A031092690310926C0310926B035A
:1028400010926E0310926D031092700310926F033A
:10285000109272031092710310927403109273031A
:102860008FEF9FEF90937603809375039093780397
:102870008093770390E080E020917D03281719066C
:10288000A9F0A4F0E0917903F0917A03E80FF91F21
:1028900010820196F1CFDC018D919C9111970097E8
:1028A000D1F70D931C9387CF8F5F98CF10925C0365
:1028B00010925B0380E890E090935E0380935D0349
:1028C00088E48093590310925A0364E571E083E52C
:1028D00093E00E946C0C60E08BE093E00E949C0B04
:1028E00061E083E293E00E949C0B62E08BE393E063
:1028F000CA56DF4F0FB6F894DEBF0FBECDBFDF91D3
:10290000CF911F910F91FF90EF90DF90CF900C949B
:102910009C0BCF93DF93CDB7DEB7AA970FB6F89491
:10292000DEBF0FBECDBF789484B5826084BD84B510
:10293000816084BD85B5826085BD85B5816085BDBA
:1029400080916E00816080936E0010928100809172
:1029500081008260809381008091810081608093FA
:10296000810080918000816080938000809191003F
:1029700082608093910080919100816080939100AA
:10298000809190008160809390008091C10084606C
:102990008093C1008091C10082608093C1008091CA
:1029A000C10081608093C1008091C30081608093E9
:1029B000C3008091C00082608093C0008091C200FB
:1029C00081608093C20080917A00846080937A0055
:1029D00080917A00826080937A0080917A00816091
:1029E00080937A0080917A00806880937A001092B8
:1029F0005A0210924D0210924C028091D7008160D1
:102A00008093D70080EA8093D80089B5806189BD22
:102A100089B5826089BD09B400FEFDCF61E070E038
:102A200080E090E00E94C7038091D8008F7C806195
:102A30008093D8008091E000807F8093E0008091B7
:102A4000E1008E7E8093E1008DE08093E200559A54
:102A5000209A5D98289881E080937B030E94040A65
:102A6000109253021092520210928C021092AE02F7
:102A70000E94C40482E791E0909351028093500237
:102A800083E791E090934F0280934E0280EE90E0B6
:102A900090935E0380935D0310925C0310925B033E
:102AA0008FEF9FEF9093BC028093BB0210929E0326
:102AB00010929D039093A00380939F0310928E0326
:102AC00010928D039093900380938F031092920342
:102AD00010929103909394038093930382E591E085
:102AE000882E880F990880E0282E80E0382E8FB736
:102AF000F89440905B0250905C0260905D02709090
:102B00005E028FBF86E0E9E5F3E0DE011D960190ED
:102B10000D928A95E1F76091150390E080E06430B2
:102B200020F4CE010D960E94A209BC018BE093E037
:102B30000E94B50710926C0310926B0380917B0387
:102B400081110E94040A86E0E9E5F3E0DE01539674
:102B500001900D928A95E1F760912D0390E080E05D
:102B6000643020F4CE0143960E94A209BC0183E2A6
:102B700093E00E94B507109266031092650380915E
:102B80007B0381110E94040A86E0E9E5F3E0DE019F
:102B9000599601900D928A95E1F76091450390E076
:102BA00080E0643020F4CE0149960E94A209BC0165
:102BB0008BE393E00E94B5071092680310926703BD
:102BC00080917B0381110E94040A8FEA92E00E94A7
:102BD0001703181619060CF052C063E571E0CE0118
:102BE00085960E946C0C0E94B30297FD0FC0881559
:102BF000990561F089831A8241E050E0BE016F5F60
:102C00007F4FCE0185960E94270CEDCF70E060E0EB
:102C1000CE0185960E947401833609F4CBC08936B3
:102C200051F562E070E0CE0185960E9474018F3606
:102C300009F4B3C0863769F08336E9F448E150E01F
:102C40006FE571E08FEA92E00E9487040E94E40B36
:102C500012C06AE571E0CE0101960E946C0C63E53A
:102C600073E0CE0101960E94220D0E94EC0BCE0172
:102C700001960E94350DCE0185960E94350D8091FA
:102C80005802882309F482C0809154029091550221
:102C9000A0915602B0915702A3019201281B390B53
:102CA0004A0B5B0BDA01C9014097A105B10508F495
:102CB0006DC040925402509255026092560270923A
:102CC000570265EB71E0CE014F960E946C0C60914B
:102CD000160370911703CE0101960E94C80CBE0125
:102CE0006F5F7F4FCE014F960E94530CCE0101962D
:102CF0000E94350D60912E0370912F03CE01019635
:102D00000E94C80C69E771E0CE0107960E946C0C26
:102D1000BE016F5F7F4FCE0107960E94220DBC015E
:102D2000CE014F960E94530CCE0107960E94350D9E
:102D3000CE0101960E94350D6091460370914703C4
:102D4000CE0101960E94C80C69E771E0CE0107969A
:102D50000E946C0CBE016F5F7F4FCE0107960E94F0
:102D6000220DBC01CE014F960E94530CCE01079656
:102D70000E94350DCE0101960E94350DCE014F9671
:102D80000E94EC0BCE014F960E94350D21143104A8
:102D900009F4ADCE0E940000A6CE64E070E0CE0142
:102DA00085960E94740191E0813309F090E0909340
:102DB000580261CF62E070E0CE0185960E947401F6
:102DC000082E000C990B0E943B198C01E9A4FAA46F
:102DD000570121E0A21AB10836E0E31AF108AE1457
:102DE000BF0428F49E2D8F2D7501A92EB82E63E502
:102DF00071E0CE0101960E946C0CC9A4DAA4EC1417
:102E0000FD04E0F4AC14BD0408F46501EDA1FEA1DD
:102E1000EC0DFD1DB08010826DA17EA16E0D7F1D99
:102E2000CE0101966115710509F458C00E949D0CF0
:102E30008DA19EA1C80ED91EF601B08289819A810A
:102E4000C12CD12C7601009719F00E9459196B0101
:102E5000CE0101960E94350D64E070E0CE018596AA
:102E60000E947401843609F4B5C0DCF5823609F499
:102E700065C00CF089C0813609F0FDCEF8E10F9FE6
:102E8000C0011124855F9C4FFC01D382C2820E9445
:102E9000750D62E070E0CE0185960E947401682F86
:102EA000CE0101960E94F40C68E771E0CE0107960E
:102EB0000E946C0CBE016F5F7F4FCE0107960E948F
:102EC000220D6BE771E00E940C0D0E94EC0BCE010D
:102ED00007960E94350DCE01019675C10E945A0CCD
:102EE000A7CF823709F49CC08A3709F46FC18636B0
:102EF00009F0C1CEF8E10F9FC0011124B601855F32
:102F00009C4F0E94A30D62E070E0CE0185960E9466
:102F10007401682FCE0101960E94F40C68E771E0FD
:102F2000CE0107960E946C0CBE016F5F7F4FCE01F1
:102F300007960E94220D6FE971E0C5CFF8E10F9F5F
:102F4000C0011124855F9C4FFC01D182C0820E9488
:102F5000750D62E070E0CE0185960E947401682FC5
:102F6000CE0101960E94F40C68E771E0CE0107964D
:102F70000E946C0CBE016F5F7F4FCE0107960E94CE
:102F8000220D64E871E09FCFF8E10F9FC00111248A
:102F9000855F9C4FFC01D782C6820E94750D62E05E
:102FA00070E0CE0185960E947401682FCE010196D3
:102FB0000E94F40C68E771E0CE0107960E946C0C49
:102FC000BE016F5F7F4FCE0107960E94220D6DE814
:102FD00071E079CFF8E10F9FC0011124855F9C4F0C
:102FE000FC01D582C4820E94750D62E070E0CE01C2
:102FF00085960E947401682FCE0101960E94F40C00
:1030000068E771E0CE0107960E946C0CBE016F5F0D
:103010007F4FCE0107960E94220D66E971E053CFE3
:10302000112763E571E0CE014F960E946C0C28E1F8
:10303000209FC001219F900D11248C01055F1C4F22
:10304000F80160817181CE0101960E94C80CBE0119
:103050006F5F7F4FCE014F960E94530CCE010196B9
:103060000E94350DF80162817381CE0101960E94A4
:10307000C80C69E771E0CE0107960E946C0CBE0196
:103080006F5F7F4FCE0107960E94220DBC01CE01DB
:103090004F960E94530CCE0107960E94350DCE012B
:1030A00001960E94350DF80164817581CE0101966B
:1030B0000E94C80C69E771E0CE0107960E946C0C73
:1030C000BE016F5F7F4FCE0107960E94220DBC01AB
:1030D000CE014F960E94530CCE0107960E94350DEB
:1030E000CE0101960E94350DF80166817781CE01EF
:1030F00001960E94C80C69E771E0CE0107960E9414
:103100006C0CBE016F5F7F4FCE0107960E94220DAF
:10311000BC01CE014F960E94530CCE0107960E942F
:10312000350DCE0101960E94350DF801608571853F
:10313000CE0101960E94C80C69E771E0CE010796A6
:103140000E946C0CBE016F5F7F4FCE0107960E94FC
:10315000220DBC01CE014F960E94530CCE01079662
:103160000E94350DCE0101960E94350D62E070E09F
:10317000CE0185960E947401682FCE0101960E94AF
:10318000F40C68E771E0CE0107960E946C0CBE015A
:103190006F5F7F4FCE0107960E94220D68EA71E0B3
:1031A0000E940C0DBE01615E7F4F0E94220D0E94A5
:1031B000EC0BCE0107960E94350DCE0101960E94C0
:1031C000350DCE014F960E94350D55CDF8E10F9F7C
:1031D00080011124055F1C4FF80113821282C8017F
:1031E0000E94750DF80111821082C8010E94750DB0
:1031F000F80115821482C8010E94750D2FEF3FEF70
:10320000F80137832683C8010E94750D70E060E0E5
:10321000C8010E94A30D62E070E0CE0185960E9475
:103220007401682FCE0101960E94F40C68E771E0EA
:10323000CE0107960E946C0CBE016F5F7F4FCE01DE
:1032400007960E94220D6CEA71E03DCECF93DF938A
:10325000C3E5D3E068978C899D89009711F00E949F
:10326000421D83E0CB30D807A9F783E593E0DF91D7
:10327000CF910C94350DFC0188279927E894219172
:103280002032E9F3293010F02E30C8F32B3241F010
:103290002D3239F4689404C00E949519820F911D53
:1032A000219120532A30C0F31EF4909581959F4FB1
:1032B00008951F93FC0199278827BC01E894119178
:1032C0001032E9F3193010F01E30C8F31B3251F000
:1032D0001D3249F4689406C00E948019610F711D67
:1032E000811D911D119110531A30B0F33EF4909549
:1032F0008095709561957F4F8F4F9F4F1F910895D7
:10330000592F482F372F262F660F771F881F991F99
:10331000660F771F881F991F620F731F841F951FE9
:10332000660F771F881F991F08957AE0979F902D49
:10333000879F802D910D11240895BB27FB015527F0
:10334000AA27880F991FAA1FA41710F0A41B839502
:103350005051B9F7A05DAA3308F0A95DA193009779
:1033600079F7B111B1931192CB010C94B719DC012B
:10337000FC01672F71917723E1F7329704C07C91AC
:103380006D9370836291AE17BF07C8F30895E894F8
:1033900009C097FB3EF490958095709561957F4F9D
:1033A0008F4F9F4F9923A9F0F92F96E9BB2793954B
:1033B000F695879577956795B795F111F8CFFAF45B
:1033C000BB0F11F460FF1BC06F5F7F4F8F4F9F4F8C
:1033D00016C0882311F096E911C0772321F09EE8EA
:1033E000872F762F05C0662371F096E8862F70E050
:1033F00060E02AF09A95660F771F881FDAF7880F2A
:103400009695879597F908950E94171A0C94881A33
:103410000E947A1A38F00E94811A20F0952311F048
:103420000C94711A0C94771A11240C94BC1A0E94F3
:10343000991A70F3959FC1F3950F50E0551F629F45
:10344000F001729FBB27F00DB11D639FAA27F00DFD
:10345000B11DAA1F649F6627B00DA11D661F829F24
:103460002227B00DA11D621F739FB00DA11D621F09
:10347000839FA00D611D221F749F3327A00D611D26
:10348000231F849F600D211D822F762F6A2F112408
:103490009F5750409AF0F1F088234AF0EE0FFF1F3B
:1034A000BB1F661F771F881F91505040A9F79E3F92
:1034B000510580F00C94711A0C94BC1A5F3FE4F330
:1034C000983ED4F3869577956795B795F795E795E8
:1034D0009F5FC1F7FE2B880F911D9695879597F9F1
:1034E000089597F99F6780E870E060E008959FEF86
:1034F00080EC089500240A9416161706180609068B
:10350000089500240A941216130614060506089559
:10351000092E0394000C11F4882352F0BB0F40F4E1
:10352000BF2B11F460FF04C06F5F7F4F8F4F9F4F21
:10353000089557FD9058440F551F59F05F3F71F0A3
:103540004795880F97FB991F61F09F3F79F087950A
:103550000895121613061406551FF2CF4695F1DF93
:1035600008C0161617061806991FF1CF8695710523
:10357000610508940895E894BB2766277727CB0157
:1035800097F90895F999FECF92BD81BDF89A9927D0
:1035900080B50895262FF999FECF1FBA92BD81BD3F
:1035A00020BD0FB6F894FA9AF99A0FBE01960895C5
:1035B000052E97FB1EF400940E94EF1A57FD07D0CA
:1035C0000E94391B07FC03D04EF40C94EF1A50955F
:1035D0004095309521953F4F4F4F5F4F08959095FF
:1035E0008095709561957F4F8F4F9F4F08950E94F2
:1035F0005B1BA59F900DB49F900DA49F800D911D06
:10360000112408952F923F924F925F926F927F9272
:103610008F929F92AF92BF92CF92DF92EF92FF92E2
:103620000F931F93CF93DF93CDB7DEB7CA1BDB0B8E
:103630000FB6F894DEBF0FBECDBF09942A88398833
:1036400048885F846E847D848C849B84AA84B9843A
:10365000C884DF80EE80FD800C811B81AA81B98146
:10366000CE0FD11D0FB6F894DEBF0FBECDBFED015A
:103670000895A1E21A2EAA1BBB1BFD010DC0AA1FB3
:10368000BB1FEE1FFF1FA217B307E407F50720F0CB
:10369000A21BB30BE40BF50B661F771F881F991F46
:1036A0001A9469F760957095809590959B01AC018F
:1036B000BD01CF010895A29FB001B39FC001A39F98
:1036C000700D811D1124911DB29F700D811D11245B
:1036D000911D08955058BB27AA270E94821B0C9465
:1036E000881A0E947A1A38F00E94811A20F039F460
:1036F0009F3F19F426F40C94771A0EF4E095E7FB3B
:103700000C94711AE92F0E94991A58F3BA1762079C
:1037100073078407950720F079F4A6F50C94BB1A7B
:103720000EF4E0950B2EBA2FA02D0B01B9019001DC
:103730000C01CA01A0011124FF27591B99F0593F20
:1037400050F4503E68F11A16F040A22F232F342F68
:103750004427585FF3CF469537952795A795F040B6
:103760005395C9F77EF41F16BA0B620B730B840BCB
:10377000BAF09150A1F0FF0FBB1F661F771F881F83
:10378000C2F70EC0BA0F621F731F841F48F48795DB
:1037900077956795B795F7959E3F08F0B0CF9395CD
:1037A000880F08F09927EE0F9795879508950E9446
:1037B000EB1B0C94881A0E94811A58F00E947A1A06
:1037C00040F029F45F3F29F00C94711A51110C94C8
:1037D000BC1A0C94771A0E94991A68F39923B1F3D2
:1037E000552391F3951B550BBB27AA276217730727
:1037F000840738F09F5F5F4F220F331F441FAA1FBB
:10380000A9F335D00E2E3AF0E0E832D09150504076
:10381000E695001CCAF72BD0FE2F29D0660F771F24
:10382000881FBB1F261737074807AB07B0E809F00A
:10383000BB0B802DBF01FF2793585F4F3AF09E3F8F
:10384000510578F00C94711A0C94BC1A5F3FE4F3A4
:10385000983ED4F3869577956795B795F7959F5FD2
:10386000C9F7880F911D9695879597F90895E1E01E
:10387000660F771F881FBB1F621773078407BA077D
:1038800020F0621B730B840BBA0BEE1F88F7E095D8
:1038900008950E94A11A88F09F5798F0B92F992790
:1038A000B751B0F0E1F0660F771F881F991F1AF02B
:1038B000BA95C9F714C0B13091F00E94BB1AB1E0BB
:1038C00008950C94BB1A672F782F8827B85F39F0BA
:1038D000B93FCCF3869577956795B395D9F73EF4C4
:1038E00090958095709561957F4F8F4F9F4F08956C
:1038F000AA1BBB1B51E107C0AA1FBB1FA617B70716
:1039000010F0A61BB70B881F991F5A95A9F7809531
:103910009095BC01CD01089597FB072E16F40094F5
:1039200007D077FD09D00E94781C07FC05D03EF433
:10393000909581959F4F0895709561957F4F08955B
:10394000EE0FFF1F0590F491E02D09940F931F9344
:10395000CF93DF938230910510F482E090E0E09104
:10396000B103F091B20330E020E0B0E0A0E0309786
:1039700099F42115310509F44AC0281B390B24306C
:103980003105D8F58A819B816115710589F1FB01AB
:1039900093838283FE0111C0408151810281138192
:1039A00048175907E0F04817590799F4109761F044
:1039B00012960C93129713961C933296CF01DF91B7
:1039C000CF911F910F9108950093B1031093B2030B
:1039D000F4CF2115310551F04217530738F0A901F2
:1039E000DB019A01BD01DF01F801C1CFEF01F9CF81
:1039F0009093B2038093B103CDCFFE01E20FF31F8A
:103A0000819391932250310939832883D7CF209114
:103A1000AF033091B003232B41F420911501309175
:103A200016013093B0032093AF032091130130911E
:103A300014012115310541F42DB73EB7409117010E
:103A400050911801241B350BE091AF03F091B003A6
:103A5000E217F307A0F42E1B3F0B2817390778F065
:103A6000AC014E5F5F4F2417350748F04E0F5F1FC4
:103A70005093B0034093AF03819391939FCFF0E0B5
:103A8000E0E09CCFCF93DF930097E9F0FC01329701
:103A900013821282A091B103B091B203ED0130E024
:103AA00020E01097A1F420813181820F931F209193
:103AB000AF033091B0032817390709F061C0F093C4
:103AC000B003E093AF03DF91CF910895EA01CE17E1
:103AD000DF07E8F54A815B819E0141155105B1F789
:103AE000E901FB83EA8349915991C40FD51FEC1773
:103AF000FD0761F4808191810296840F951FE90191
:103B000099838883828193819B838A83F0E0E0E0BC
:103B100012968D919C9113970097B9F52D913C9138
:103B20001197CD010296820F931F2091AF03309120
:103B3000B0032817390739F6309751F51092B203C0
:103B40001092B103B093B003A093AF03BCCFD38363
:103B5000C28340815181840F951FC817D90761F432
:103B60004E5F5F4F88819981480F591F5183408371
:103B70008A819B81938382832115310509F0B0CF1F
:103B8000F093B203E093B1039ECFFD01DC01C0CFFF
:103B900013821282D7CFB0E0A0E0E1EDFDE10C94FA
:103BA000041B8C01009751F4CB010E94A61C8C01D0
:103BB000C801CDB7DEB7E0E10C94201BFC01E60F95
:103BC000F71F9C0122503109E217F30708F49DC04A
:103BD000D901CD91DC911197C617D70798F0C53060
:103BE000D10530F3CE0104978617970708F3C61B5B
:103BF000D70B2297C193D1936D937C93CF010E94F1
:103C0000421DD6CF5B01AC1ABD0A4C018C0E9D1E25
:103C1000A091B103B091B203512C412CF12CE12CB5
:103C2000109731F58091AF039091B00388159905F5
:103C300009F05CC04616570608F058C08091130181
:103C400090911401009741F48DB79EB740911701F0
:103C500050911801841B950BE817F90708F055C01F
:103C6000F093B003E093AF03F90171836083A0CFB9
:103C70008D919C91119712966C90129713967C904F
:103C80001397A815B90559F56C0142E0C40ED11C73
:103C9000CA14DB0420F1AC014A195B09DA0112965F
:103CA000159780F06282738251834083D9016D93AE
:103CB0007C93E114F10471F0D7011396FC93EE9319
:103CC000129776CF22968C0F9D1FF90191838083E6
:103CD000F301EFCFF093B203E093B10369CF48163D
:103CE000590608F42C017D01D3019ACFCB010E9423
:103CF000A61C7C01009749F0AE01B8010E94881E05
:103D0000C8010E94421D870153CF10E000E050CF50
:103D1000FB01DC0102C001900D9241505040D8F7E8
:103D20000895FB01DC0101900D920020E1F7089558
:103D300010E0C6ECD0E004C0FE010E94A01C219659
:0A3D4000C73CD107C9F7F894FFCF84
:103D4A0000C18081000000FFFFFFFF00E1000000CA
:103D5A000000000000B3038000000000007C06F8A9
:103D6A0006BA069F0600400050006000700000007E
:103D7A00006F0287049002850217039502F302007E
:103D8A000000004A061D067906F30516060306F426
:103D9A00050D0A00312E302E3300693B763B00694F
:103DAA003B633B53696D666F72676520456E676951
:103DBA006E656572696E6700633B003B613B7361C8
:103DCA00766564003B623B7361766564003B633BE6
:103DDA007361766564003B643B7361766564003B9E
:103DEA00663B7361766564003B723B003B7A3B72CB
:083DFA0065736574006C3B0069
:00000001FF
